Component: ARM Compiler 5.05 update 2 (build 169) Tool: armlink [4d0f33]

==============================================================================

Section Cross References

    main.o(.text) refers to stm32f10x_rcc.o(.text) for RCC_APB2PeriphClockCmd
    main.o(.text) refers to stm32f10x_gpio.o(.text) for GPIO_Init
    main.o(.text) refers to delay.o(.text) for delay_init
    main.o(.text) refers to sys.o(.text) for NVIC_Configuration
    main.o(.text) refers to usart.o(.text) for uart_init
    main.o(.text) refers to timer.o(.text) for TIM3_Int_Init
    main.o(.text) refers to ili9320.o(.text) for Ili9320_Init
    main.o(.text) refers to fatfs.o(.text) for Data_Init
    main.o(.text) refers to ff.o(.text) for f_open
    main.o(.text) refers to usart.o(.data) for USART_RX_STA
    main.o(.text) refers to usart.o(.bss) for USART_RX_BUF
    main.o(.text) refers to fatfs.o(.data) for list
    main.o(.text) refers to fatfs.o(.bss) for fdst
    sd_sdio.o(.text) refers to stm32f10x_sdio.o(.text) for SDIO_ClockCmd
    sd_sdio.o(.text) refers to stm32f10x_rcc.o(.text) for RCC_AHBPeriphClockCmd
    sd_sdio.o(.text) refers to stm32f10x_gpio.o(.text) for GPIO_Init
    sd_sdio.o(.text) refers to misc.o(.text) for NVIC_Init
    sd_sdio.o(.text) refers to stm32f10x_dma.o(.text) for DMA_GetFlagStatus
==============================================================================

Removing Unused input sections from the image.

    Removing core_cm3.o(.emb_text), (32 bytes).

1 unused section(s) (total 32 bytes) removed from the image.

==============================================================================

Image Symbol Table

    Local Symbols

    Symbol Name                              Value     Ov Type        Size  Object(Section)

    ../clib/angel/boardlib.s                 0x00000000   Number         0  boardinit2.o ABSOLUTE
    ../clib/angel/boardlib.s                 0x00000000   Number         0  boardinit1.o ABSOLUTE
    ../clib/angel/boardlib.s                 0x00000000   Number         0  boardshut.o ABSOLUTE
    ../clib/angel/boardlib.s                 0x00000000   Number         0  boardinit3.o ABSOLUTE
    ../clib/angel/handlers.s                 0x00000000   Number         0  __scatter_zi.o ABSOLUTE
    ../clib/angel/handlers.s                 0x00000000   Number         0  __scatter_copy.o ABSOLUTE
    ../clib/angel/kernel.s                   0x00000000   Number         0  __rtentry.o ABSOLUTE
    ../clib/angel/kernel.s                   0x00000000   Number         0  __rtentry4.o ABSOLUTE
    ../clib/angel/kernel.s                   0x00000000   Number         0  __rtentry2.o ABSOLUTE
    ../clib/angel/kernel.s                   0x00000000   Number         0  rtexit.o ABSOLUTE
    ../clib/angel/kernel.s                   0x00000000   Number         0  rtexit2.o ABSOLUTE
    ../clib/angel/rt.s                       0x00000000   Number         0  aeabi_ldiv0.o ABSOLUTE
    ../clib/angel/rt.s                       0x00000000   Number         0  rt_raise.o ABSOLUTE
    ../clib/angel/rt.s                       0x00000000   Number         0  rt_div0.o ABSOLUTE
    ../clib/angel/rt.s                       0x00000000   Number         0  aeabi_ldiv0_sigfpe.o ABSOLUTE
    ../clib/angel/rt.s                       0x00000000   Number         0  rt_heap_descriptor_intlibspace.o ABSOLUTE
    ../clib/angel/rt.s                       0x00000000   Number         0  rt_heap_descriptor.o ABSOLUTE
    ../clib/angel/scatter.s                  0x00000000   Number         0  __scatter.o ABSOLUTE
    ../clib/angel/startup.s                  0x00000000   Number         0  __main.o ABSOLUTE
    ../clib/angel/sys.s                      0x00000000   Number         0  libspace.o ABSOLUTE
    ../clib/angel/sys.s                      0x00000000   Number         0  mutex_dummy.o ABSOLUTE
    ../clib/angel/sys.s                      0x00000000   Number         0  sys_stackheap_outer.o ABSOLUTE
    ../clib/angel/sys.s                      0x00000000   Number         0  indicate_semi.o ABSOLUTE
    ../clib/angel/sys.s                      0x00000000   Number         0  use_no_semi.o ABSOLUTE
    ../clib/angel/sysapp.c                   0x00000000   Number         0  sys_command.o ABSOLUTE
    ../clib/angel/sysapp.c                   0x00000000   Number         0  sys_exit.o ABSOLUTE
    ../clib/angel/sysapp.c                   0x00000000   Number         0  sys_wrch.o ABSOLUTE
    ../clib/armsys.c                         0x00000000   Number         0  no_argv.o ABSOLUTE
    ../clib/armsys.c                         0x00000000   Number         0  _get_argv.o ABSOLUTE
    ../clib/armsys.c                         0x00000000   Number         0  _get_argv_nomalloc.o ABSOLUTE
    ../clib/armsys.c                         0x00000000   Number         0  argv_veneer.o ABSOLUTE
    ../clib/armsys.c                         0x00000000   Number         0  argv_veneer.o ABSOLUTE
    ../clib/heap1.c                          0x00000000   Number         0  h1_extend.o ABSOLUTE
    ../clib/heap1.c                          0x00000000   Number         0  h1_alloc.o ABSOLUTE
    ../clib/heap1.c                          0x00000000   Number         0  h1_final_mt.o ABSOLUTE
    ../clib/heap1.c                          0x00000000   Number         0  h1_final.o ABSOLUTE
    ../clib/heap1.c                          0x00000000   Number         0  h1_free.o ABSOLUTE
    ../clib/heap1.c                          0x00000000   Number         0  h1_init_mt.o ABSOLUTE
    ../clib/heap1.c                          0x00000000   Number         0  h1_alloc_mt.o ABSOLUTE
    ../clib/heap1.c                          0x00000000   Number         0  h1_init.o ABSOLUTE
    ../clib/heap1.c                          0x00000000   Number         0  h1_free_mt.o ABSOLUTE
    ../clib/heap1.c                          0x00000000   Number         0  h1_extend_mt.o ABSOLUTE
    ../clib/heap2.c                          0x00000000   Number         0  fdtree.o ABSOLUTE
    ../clib/heap2.c                          0x00000000   Number         0  heap2.o ABSOLUTE
    ../clib/heap2.c                          0x00000000   Number         0  heap2mt.o ABSOLUTE
    ../clib/heapalloc.c                      0x00000000   Number         0  maybetermalloc2.o ABSOLUTE
    ../clib/heapalloc.c                      0x00000000   Number         0  maybetermalloc2.o ABSOLUTE
    ../clib/heapalloc.c                      0x00000000   Number         0  maybetermalloc1.o ABSOLUTE
    ../clib/heapalloc.c                      0x00000000   Number         0  maybetermalloc1.o ABSOLUTE
    ../clib/heapalloc.c                      0x00000000   Number         0  heapstubs.o ABSOLUTE
    ../clib/heapalloc.c                      0x00000000   Number         0  init_alloc.o ABSOLUTE
    ../clib/heapalloc.c                      0x00000000   Number         0  hguard.o ABSOLUTE
    ../clib/heapalloc.c                      0x00000000   Number         0  hrguard.o ABSOLUTE
    ../clib/heapalloc.c                      0x00000000   Number         0  free.o ABSOLUTE
    ../clib/heapalloc.c                      0x00000000   Number         0  malloc.o ABSOLUTE
    ../clib/heapalloc.c                      0x00000000   Number         0  term_alloc.o ABSOLUTE
    ../clib/heapaux.c                        0x00000000   Number         0  heapauxa.o ABSOLUTE
    ../clib/heapaux.c                        0x00000000   Number         0  heapauxi.o ABSOLUTE
    ../clib/libinit.s                        0x00000000   Number         0  libinit2.o ABSOLUTE
    ../clib/libinit.s                        0x00000000   Number         0  libshutdown2.o ABSOLUTE
    ../clib/libinit.s                        0x00000000   Number         0  libinit.o ABSOLUTE
    ../clib/libinit.s                        0x00000000   Number         0  libshutdown.o ABSOLUTE
    ../clib/longlong.s                       0x00000000   Number         0  lludivv7m.o ABSOLUTE
    ../clib/longlong.s                       0x00000000   Number         0  llsdiv.o ABSOLUTE
    ../clib/memcpset.s                       0x00000000   Number         0  rt_memcpy_w.o ABSOLUTE
    ../clib/signal.c                         0x00000000   Number         0  defsig_rtmem_formal.o ABSOLUTE
    ../clib/signal.c                         0x00000000   Number         0  defsig_fpe_inner.o ABSOLUTE
    ../clib/signal.c                         0x00000000   Number         0  defsig_rtred_inner.o ABSOLUTE
    ../clib/signal.c                         0x00000000   Number         0  defsig_stak_inner.o ABSOLUTE
    ../clib/signal.c                         0x00000000   Number         0  defsig_pvfn_inner.o ABSOLUTE
    ../clib/signal.c                         0x00000000   Number         0  defsig_fpe_formal.o ABSOLUTE
    ../clib/signal.c                         0x00000000   Number         0  defsig_fpe_outer.o ABSOLUTE
    ../clib/signal.c                         0x00000000   Number         0  defsig_general.o ABSOLUTE
    ../clib/signal.c                         0x00000000   Number         0  defsig_cppl_inner.o ABSOLUTE
    ../clib/signal.c                         0x00000000   Number         0  defsig_segv_inner.o ABSOLUTE
    ../clib/signal.c                         0x00000000   Number         0  defsig_other.o ABSOLUTE
    ../clib/signal.c                         0x00000000   Number         0  __raise.o ABSOLUTE
    ../clib/signal.c                         0x00000000   Number         0  defsig_exit.o ABSOLUTE
    ../clib/signal.c                         0x00000000   Number         0  defsig_rtmem_inner.o ABSOLUTE
    ../clib/signal.c                         0x00000000   Number         0  defsig_rtmem_outer.o ABSOLUTE
    ../clib/signal.c                         0x00000000   Number         0  defsig_abrt_inner.o ABSOLUTE
    ../clib/signal.s                         0x00000000   Number         0  defsig.o ABSOLUTE
    ../clib/stdlib.c                         0x00000000   Number         0  exit.o ABSOLUTE
    ../clib/string.c                         0x00000000   Number         0  strlen.o ABSOLUTE
    ../fplib/fpinit.s                        0x00000000   Number         0  fpinit.o ABSOLUTE
    core\\core_cm3.c                         0x00000000   Number         0  core_cm3.o ABSOLUTE
    core\core_cm3.c                          0x00000000   Number         0  core_cm3.o ABSOLUTE
    core\startup_stm32f10x_hd.s              0x00000000   Number         0  startup_stm32f10x_hd.o ABSOLUTE
    dc.s                                     0x00000000   Number         0  dc.o ABSOLUTE
    ff9\diskio.C                             0x00000000   Number         0  diskio.o ABSOLUTE
    ff9\ff.c                                 0x00000000   Number         0  ff.o ABSOLUTE
    ff9\option\cc936.c                       0x00000000   Number         0  cc936.o ABSOLUTE
    lcd\ili9320.c                            0x00000000   Number         0  ili9320.o ABSOLUTE
    stm32f10x_fwlib\src\misc.c               0x00000000   Number         0  misc.o ABSOLUTE
    stm32f10x_fwlib\src\stm32f10x_dma.c      0x00000000   Number         0  stm32f10x_dma.o ABSOLUTE
    stm32f10x_fwlib\src\stm32f10x_fsmc.c     0x00000000   Number         0  stm32f10x_fsmc.o ABSOLUTE
    stm32f10x_fwlib\src\stm32f10x_gpio.c     0x00000000   Number         0  stm32f10x_gpio.o ABSOLUTE
    stm32f10x_fwlib\src\stm32f10x_rcc.c      0x00000000   Number         0  stm32f10x_rcc.o ABSOLUTE
    stm32f10x_fwlib\src\stm32f10x_sdio.c     0x00000000   Number         0  stm32f10x_sdio.o ABSOLUTE
    stm32f10x_fwlib\src\stm32f10x_tim.c      0x00000000   Number         0  stm32f10x_tim.o ABSOLUTE
    stm32f10x_fwlib\src\stm32f10x_usart.c    0x00000000   Number         0  stm32f10x_usart.o ABSOLUTE
    system_start\delay.c                     0x00000000   Number         0  delay.o ABSOLUTE
    system_start\stm32f10x_it.c              0x00000000   Number         0  stm32f10x_it.o ABSOLUTE
    system_start\sys.c                       0x00000000   Number         0  sys.o ABSOLUTE
    system_start\system_stm32f10x.c          0x00000000   Number         0  system_stm32f10x.o ABSOLUTE
    system_start\usart.c                     0x00000000   Number         0  usart.o ABSOLUTE
    user\LinkList.c                          0x00000000   Number         0  linklist.o ABSOLUTE
    user\fatfs.c                             0x00000000   Number         0  fatfs.o ABSOLUTE
    user\main.c                              0x00000000   Number         0  main.o ABSOLUTE
    user\sd_sdio.c                           0x00000000   Number         0  sd_sdio.o ABSOLUTE
    user\timer.c                             0x00000000   Number         0  timer.o ABSOLUTE
    RESET                                    0x08000000   Section      304  startup_stm32f10x_hd.o(RESET)
    !!!main                                  0x08000130   Section        8  __main.o(!!!main)
    !!!scatter                               0x08000138   Section       52  __scatter.o(!!!scatter)
    !!handler_copy                           0x0800016c   Section       26  __scatter_copy.o(!!handler_copy)
    !!handler_zi                             0x08000188   Section       28  __scatter_zi.o(!!handler_zi)
    .ARM.Collect$$libinit$$00000000          0x080001a4   Section        2  libinit.o(.ARM.Collect$$libinit$$00000000)
    .ARM.Collect$$libinit$$00000002          0x080001a6   Section        0  libinit2.o(.ARM.Collect$$libinit$$00000002)
    .ARM.Collect$$libinit$$00000004          0x080001a6   Section        0  libinit2.o(.ARM.Collect$$libinit$$00000004)
    .ARM.Collect$$libinit$$00000005          0x080001a6   Section        8  libinit2.o(.ARM.Collect$$libinit$$00000005)
    .ARM.Collect$$libinit$$0000000A          0x080001ae   Section        0  libinit2.o(.ARM.Collect$$libinit$$0000000A)
    .ARM.Collect$$libinit$$0000000C          0x080001ae   Section        0  libinit2.o(.ARM.Collect$$libinit$$0000000C)
    .ARM.Collect$$libinit$$0000000E          0x080001ae   Section        0  libinit2.o(.ARM.Collect$$libinit$$0000000E)
    .ARM.Collect$$libinit$$00000011          0x080001ae   Section        0  libinit2.o(.ARM.Collect$$libinit$$00000011)
    .ARM.Collect$$libinit$$00000013          0x080001ae   Section        0  libinit2.o(.ARM.Collect$$libinit$$00000013)
    .ARM.Collect$$libinit$$00000015          0x080001ae   Section        0  libinit2.o(.ARM.Collect$$libinit$$00000015)
    .ARM.Collect$$libinit$$00000017          0x080001ae   Section        0  libinit2.o(.ARM.Collect$$libinit$$00000017)
    .ARM.Collect$$libinit$$00000019          0x080001ae   Section        0  libinit2.o(.ARM.Collect$$libinit$$00000019)
    .ARM.Collect$$libinit$$0000001B          0x080001ae   Section        0  libinit2.o(.ARM.Collect$$libinit$$0000001B)
    .ARM.Collect$$libinit$$0000001D          0x080001ae   Section        0  libinit2.o(.ARM.Collect$$libinit$$0000001D)
    .ARM.Collect$$libinit$$0000001F          0x080001ae   Section        0  libinit2.o(.ARM.Collect$$libinit$$0000001F)
    .ARM.Collect$$libinit$$00000021          0x080001ae   Section        0  libinit2.o(.ARM.Collect$$libinit$$00000021)
    .ARM.Collect$$libinit$$00000023          0x080001ae   Section        0  libinit2.o(.ARM.Collect$$libinit$$00000023)
    .ARM.Collect$$libinit$$00000025          0x080001ae   Section        0  libinit2.o(.ARM.Collect$$libinit$$00000025)
    .ARM.Collect$$libinit$$0000002C          0x080001ae   Section        0  libinit2.o(.ARM.Collect$$libinit$$0000002C)
    .ARM.Collect$$libinit$$0000002E          0x080001ae   Section        0  libinit2.o(.ARM.Collect$$libinit$$0000002E)
    .ARM.Collect$$libinit$$00000030          0x080001ae   Section        0  libinit2.o(.ARM.Collect$$libinit$$00000030)
    .ARM.Collect$$libinit$$00000032          0x080001ae   Section        0  libinit2.o(.ARM.Collect$$libinit$$00000032)
    .ARM.Collect$$libinit$$00000033          0x080001ae   Section        2  libinit2.o(.ARM.Collect$$libinit$$00000033)
    .ARM.Collect$$libshutdown$$00000000      0x080001b0   Section        2  libshutdown.o(.ARM.Collect$$libshutdown$$00000000)
    .ARM.Collect$$libshutdown$$00000003      0x080001b2   Section        0  libshutdown2.o(.ARM.Collect$$libshutdown$$00000003)
    .ARM.Collect$$libshutdown$$00000006      0x080001b2   Section        0  libshutdown2.o(.ARM.Collect$$libshutdown$$00000006)
    .ARM.Collect$$libshutdown$$00000009      0x080001b2   Section        0  libshutdown2.o(.ARM.Collect$$libshutdown$$00000009)
    .ARM.Collect$$libshutdown$$0000000B      0x080001b2   Section        0  libshutdown2.o(.ARM.Collect$$libshutdown$$0000000B)
    .ARM.Collect$$libshutdown$$0000000E      0x080001b2   Section        0  libshutdown2.o(.ARM.Collect$$libshutdown$$0000000E)
    .ARM.Collect$$libshutdown$$0000000F      0x080001b2   Section        2  libshutdown2.o(.ARM.Collect$$libshutdown$$0000000F)
    .ARM.Collect$$rtentry$$00000000          0x080001b4   Section        0  __rtentry.o(.ARM.Collect$$rtentry$$00000000)
    .ARM.Collect$$rtentry$$00000002          0x080001b4   Section        0  __rtentry2.o(.ARM.Collect$$rtentry$$00000002)
    .ARM.Collect$$rtentry$$00000004          0x080001b4   Section        6  __rtentry4.o(.ARM.Collect$$rtentry$$00000004)
    .ARM.Collect$$rtentry$$00000009          0x080001ba   Section        0  __rtentry2.o(.ARM.Collect$$rtentry$$00000009)
    .ARM.Collect$$rtentry$$0000000A          0x080001ba   Section        4  __rtentry2.o(.ARM.Collect$$rtentry$$0000000A)
    .ARM.Collect$$rtentry$$0000000C          0x080001be   Section        0  __rtentry2.o(.ARM.Collect$$rtentry$$0000000C)
    .ARM.Collect$$rtentry$$0000000D          0x080001be   Section        8  __rtentry2.o(.ARM.Collect$$rtentry$$0000000D)
    .ARM.Collect$$rtexit$$00000000           0x080001c6   Section        2  rtexit.o(.ARM.Collect$$rtexit$$00000000)
    .ARM.Collect$$rtexit$$00000002           0x080001c8   Section        0  rtexit2.o(.ARM.Collect$$rtexit$$00000002)
    .ARM.Collect$$rtexit$$00000003           0x080001c8   Section        4  rtexit2.o(.ARM.Collect$$rtexit$$00000003)
    .ARM.Collect$$rtexit$$00000004           0x080001cc   Section        6  rtexit2.o(.ARM.Collect$$rtexit$$00000004)
    .emb_text                                0x080001d4   Section        0  maybetermalloc1.o(.emb_text)
    .text                                    0x080001d4   Section        0  main.o(.text)
    .text                                    0x08000674   Section        0  sd_sdio.o(.text)
    SD_DMAEndOfTransferStatus                0x080006d7   Thumb Code    10  sd_sdio.o(.text)
    SD_DMA_RxConfig                          0x080006e1   Thumb Code    86  sd_sdio.o(.text)
    SD_DMA_TxConfig                          0x08000737   Thumb Code    86  sd_sdio.o(.text)
    GPIO_Configuration                       0x0800078d   Thumb Code    70  sd_sdio.o(.text)
    CmdResp1Error                            0x080007d3   Thumb Code    40  sd_sdio.o(.text)
    FindSCR                                  0x080007fb   Thumb Code   396  sd_sdio.o(.text)
    SDEnWideBus                              0x08000987   Thumb Code   310  sd_sdio.o(.text)
    CmdResp2Error                            0x08000e35   Thumb Code    70  sd_sdio.o(.text)
    CmdResp6Error                            0x08000e7b   Thumb Code   182  sd_sdio.o(.text)
    CmdResp3Error                            0x08001057   Thumb Code    52  sd_sdio.o(.text)
    CmdResp7Error                            0x0800108b   Thumb Code    72  sd_sdio.o(.text)
    CmdError                                 0x080010d3   Thumb Code    44  sd_sdio.o(.text)
    IsCardProgramming                        0x08001999   Thumb Code   396  sd_sdio.o(.text)
    .text                                    0x08001ce0   Section        0  fatfs.o(.text)
    .text                                    0x08002508   Section        0  linklist.o(.text)
    .text                                    0x080025ec   Section        0  timer.o(.text)
    .text                                    0x0800267c   Section       64  startup_stm32f10x_hd.o(.text)
    .text                                    0x080026bc   Section        0  misc.o(.text)
    .text                                    0x08002798   Section        0  stm32f10x_gpio.o(.text)
    .text                                    0x08002af4   Section        0  stm32f10x_rcc.o(.text)
    .text                                    0x08002e98   Section        0  stm32f10x_usart.o(.text)
    .text                                    0x080032a0   Section        0  stm32f10x_dma.o(.text)
    .text                                    0x080034f4   Section        0  stm32f10x_sdio.o(.text)
    .text                                    0x080036c8   Section        0  stm32f10x_fsmc.o(.text)
    .text                                    0x08003cd4   Section        0  stm32f10x_tim.o(.text)
    TI4_Config                               0x0800417b   Thumb Code   130  stm32f10x_tim.o(.text)
    TI3_Config                               0x0800420f   Thumb Code   122  stm32f10x_tim.o(.text)
    TI2_Config                               0x080042a3   Thumb Code   130  stm32f10x_tim.o(.text)
    TI1_Config                               0x08004337   Thumb Code   108  stm32f10x_tim.o(.text)
    .text                                    0x08004af0   Section        0  delay.o(.text)
    .text                                    0x08004bc4   Section        0  stm32f10x_it.o(.text)
    .text                                    0x08004be6   Section        0  sys.o(.text)
    .text                                    0x08004bf4   Section        0  system_stm32f10x.o(.text)
    SetSysClockTo72                          0x08004bf5   Thumb Code   214  system_stm32f10x.o(.text)
    SetSysClock                              0x08004ccb   Thumb Code     8  system_stm32f10x.o(.text)
    .text                                    0x08004dd4   Section        0  usart.o(.text)
    .text                                    0x08004f14   Section        0  ff.o(.text)
    mem_cpy                                  0x08004f15   Thumb Code    26  ff.o(.text)
    mem_set                                  0x08004f2f   Thumb Code    20  ff.o(.text)
    mem_cmp                                  0x08004f43   Thumb Code    38  ff.o(.text)
    chk_chr                                  0x08004f69   Thumb Code    20  ff.o(.text)
    move_window                              0x08004f7d   Thumb Code   114  ff.o(.text)
    sync                                     0x08004fef   Thumb Code   202  ff.o(.text)
    remove_chain                             0x080052ed   Thumb Code   104  ff.o(.text)
    create_chain                             0x08005355   Thumb Code   202  ff.o(.text)
    dir_sdi                                  0x0800541f   Thumb Code   156  ff.o(.text)
    dir_next                                 0x080054bb   Thumb Code   280  ff.o(.text)
    cmp_lfn                                  0x080055d3   Thumb Code   138  ff.o(.text)
    pick_lfn                                 0x0800565d   Thumb Code   112  ff.o(.text)
    fit_lfn                                  0x080056cd   Thumb Code   122  ff.o(.text)
    sum_sfn                                  0x08005805   Thumb Code    32  ff.o(.text)
    dir_find                                 0x08005825   Thumb Code   222  ff.o(.text)
    dir_read                                 0x08005903   Thumb Code   190  ff.o(.text)
    dir_register                             0x080059c1   Thumb Code   404  ff.o(.text)
    dir_remove                               0x08005b55   Thumb Code    96  ff.o(.text)
    create_name                              0x08005bb5   Thumb Code   604  ff.o(.text)
    get_fileinfo                             0x08005e11   Thumb Code   316  ff.o(.text)
    follow_path                              0x08005f4d   Thumb Code   158  ff.o(.text)
    check_fs                                 0x08005feb   Thumb Code   164  ff.o(.text)
    chk_mounted                              0x0800608f   Thumb Code   898  ff.o(.text)
    validate                                 0x08006411   Thumb Code    42  ff.o(.text)
    .text                                    0x08007690   Section        0  cc936.o(.text)
    .text                                    0x08007744   Section        0  diskio.o(.text)
    .text                                    0x0800781c   Section        0  ili9320.o(.text)
    .text                                    0x08007ef4   Section        0  h1_alloc.o(.text)
    .text                                    0x08007f52   Section        0  h1_free.o(.text)
    .text                                    0x08007fa0   Section       72  llsdiv.o(.text)
    .text                                    0x08007fe8   Section        0  strlen.o(.text)
    .text                                    0x08008026   Section        0  heapauxi.o(.text)
    .text                                    0x0800802c   Section        8  rt_heap_descriptor_intlibspace.o(.text)
    .text                                    0x08008034   Section        0  hguard.o(.text)
    .text                                    0x08008038   Section        0  init_alloc.o(.text)
    .text                                    0x080080c2   Section        0  h1_init.o(.text)
    .text                                    0x080080d0   Section      238  lludivv7m.o(.text)
    .text                                    0x080081c0   Section        8  libspace.o(.text)
    .text                                    0x080081c8   Section        0  h1_extend.o(.text)
    .text                                    0x080081fc   Section        0  defsig_rtmem_outer.o(.text)
    .text                                    0x0800820a   Section        2  use_no_semi.o(.text)
    .text                                    0x0800820c   Section        0  indicate_semi.o(.text)
    .text                                    0x0800820c   Section       74  sys_stackheap_outer.o(.text)
    .text                                    0x08008256   Section        0  exit.o(.text)
    .text                                    0x08008262   Section        0  defsig_exit.o(.text)
    .text                                    0x0800826c   Section        0  defsig_rtmem_inner.o(.text)
    .text                                    0x080082bc   Section        0  sys_exit.o(.text)
    .text                                    0x080082c8   Section        0  defsig_general.o(.text)
    .text                                    0x080082fa   Section        0  sys_wrch.o(.text)
    i.ili9320_SetCursor                      0x08008308   Section        0  ili9320.o(i.ili9320_SetCursor)
    .constdata                               0x08008320   Section      109  fatfs.o(.constdata)
    .constdata                               0x0800838d   Section       13  ff.o(.constdata)
    LfnOfs                                   0x0800838d   Data          13  ff.o(.constdata)
    .constdata                               0x0800839a   Section    175304  cc936.o(.constdata)
    uni2oem                                  0x0800839a   Data       87172  cc936.o(.constdata)
    oem2uni                                  0x0801d81e   Data       87172  cc936.o(.constdata)
    tbl_lower                                0x08032ca2   Data         480  cc936.o(.constdata)
    tbl_upper                                0x08032e82   Data         480  cc936.o(.constdata)
    .constdata                               0x08033062   Section     1536  ili9320.o(.constdata)
    .data                                    0x20000000   Section       20  sd_sdio.o(.data)
    CardType                                 0x20000000   Data           4  sd_sdio.o(.data)
    RCA                                      0x20000004   Data           4  sd_sdio.o(.data)
    .data                                    0x20000014   Section       20  fatfs.o(.data)
    .data                                    0x20000028   Section        1  timer.o(.data)
    led13                                    0x20000028   Data           1  timer.o(.data)
    .data                                    0x20000029   Section       20  stm32f10x_rcc.o(.data)
    APBAHBPrescTable                         0x20000029   Data          16  stm32f10x_rcc.o(.data)
    ADCPrescTable                            0x20000039   Data           4  stm32f10x_rcc.o(.data)
    .data                                    0x2000003e   Section        4  delay.o(.data)
    fac_us                                   0x2000003e   Data           1  delay.o(.data)
    fac_ms                                   0x20000040   Data           2  delay.o(.data)
    .data                                    0x20000044   Section       20  system_stm32f10x.o(.data)
    .data                                    0x20000058   Section        2  usart.o(.data)
    .data                                    0x2000005c   Section        6  ff.o(.data)
    FatFs                                    0x2000005c   Data           4  ff.o(.data)
    Fsid                                     0x20000060   Data           2  ff.o(.data)
    .data                                    0x20000062   Section        2  ili9320.o(.data)
    .bss                                     0x20000064   Section      196  sd_sdio.o(.bss)
    CSD_Tab                                  0x20000064   Data          16  sd_sdio.o(.bss)
    CID_Tab                                  0x20000074   Data          16  sd_sdio.o(.bss)
    SDSTATUS_Tab                             0x20000084   Data          16  sd_sdio.o(.bss)
    .bss                                     0x20000128   Section     1756  fatfs.o(.bss)
    .bss                                     0x20000804   Section      200  usart.o(.bss)
    .bss                                     0x200008cc   Section       96  libspace.o(.bss)
    HEAP                                     0x20000930   Section      512  startup_stm32f10x_hd.o(HEAP)
    Heap_Mem                                 0x20000930   Data         512  startup_stm32f10x_hd.o(HEAP)
    STACK                                    0x20000b30   Section     1024  startup_stm32f10x_hd.o(STACK)
    Stack_Mem                                0x20000b30   Data        1024  startup_stm32f10x_hd.o(STACK)
    __initial_sp                             0x20000f30   Data           0  startup_stm32f10x_hd.o(STACK)

    Global Symbols

    Symbol Name                              Value     Ov Type        Size  Object(Section)

    BuildAttributes$$THM_ISAv4$P$D$K$B$S$PE$A:L22UL41UL21$X:L11$S22US41US21$IEEE1$IW$USESV6$~STKCKD$USESV7$~SHL$OTIME$ROPI$EBA8$UX$STANDARDLIB$REQ8$PRES8$EABIv2 0x00000000   Number         0  anon$$obj.o ABSOLUTE
    __ARM_use_no_argv                        0x00000000   Number         0  main.o ABSOLUTE
    __ARM_exceptions_init                     - Undefined Weak Reference
    __alloca_initialize                       - Undefined Weak Reference
    __arm_preinit_                            - Undefined Weak Reference
    __cpp_initialize__aeabi_                  - Undefined Weak Reference
    __cxa_finalize                            - Undefined Weak Reference
    __rt_locale                               - Undefined Weak Reference
    __sigvec_lookup                           - Undefined Weak Reference
    __user_heap_extent                        - Undefined Weak Reference
    _atexit_init                              - Undefined Weak Reference
    _call_atexit_fns                          - Undefined Weak Reference
    _clock_init                               - Undefined Weak Reference
    _fp_trap_init                             - Undefined Weak Reference
    _fp_trap_shutdown                         - Undefined Weak Reference
    _get_lc_collate                           - Undefined Weak Reference
    _get_lc_ctype                             - Undefined Weak Reference
    _get_lc_monetary                          - Undefined Weak Reference
    _get_lc_numeric                           - Undefined Weak Reference
    _get_lc_time                              - Undefined Weak Reference
    _getenv_init                              - Undefined Weak Reference
    _handle_redirection                       - Undefined Weak Reference
    _initio                                   - Undefined Weak Reference
    _mutex_acquire                            - Undefined Weak Reference
    _mutex_free                               - Undefined Weak Reference
    _mutex_release                            - Undefined Weak Reference
    _rand_init                                - Undefined Weak Reference
    _signal_finish                            - Undefined Weak Reference
    _signal_init                              - Undefined Weak Reference
    _terminateio                              - Undefined Weak Reference
    __Vectors_Size                           0x00000130   Number         0  startup_stm32f10x_hd.o ABSOLUTE
    __Vectors                                0x08000000   Data           4  startup_stm32f10x_hd.o(RESET)
    __Vectors_End                            0x08000130   Data           0  startup_stm32f10x_hd.o(RESET)
    __main                                   0x08000131   Thumb Code     8  __main.o(!!!main)
    __scatterload                            0x08000139   Thumb Code     0  __scatter.o(!!!scatter)
    __scatterload_rt2                        0x08000139   Thumb Code    44  __scatter.o(!!!scatter)
    __scatterload_rt2_thumb_only             0x08000139   Thumb Code     0  __scatter.o(!!!scatter)
    __scatterload_null                       0x08000147   Thumb Code     0  __scatter.o(!!!scatter)
    __scatterload_copy                       0x0800016d   Thumb Code    26  __scatter_copy.o(!!handler_copy)
    __scatterload_zeroinit                   0x08000189   Thumb Code    28  __scatter_zi.o(!!handler_zi)
    __rt_lib_init                            0x080001a5   Thumb Code     0  libinit.o(.ARM.Collect$$libinit$$00000000)
    __rt_lib_init_fp_1                       0x080001a7   Thumb Code     0  libinit2.o(.ARM.Collect$$libinit$$00000002)
    __rt_lib_init_heap_2                     0x080001a7   Thumb Code     0  libinit2.o(.ARM.Collect$$libinit$$00000005)
    __rt_lib_init_preinit_1                  0x080001a7   Thumb Code     0  libinit2.o(.ARM.Collect$$libinit$$00000004)
    __rt_lib_init_alloca_1                   0x080001af   Thumb Code     0  libinit2.o(.ARM.Collect$$libinit$$0000002E)
    __rt_lib_init_argv_1                     0x080001af   Thumb Code     0  libinit2.o(.ARM.Collect$$libinit$$0000002C)
    __rt_lib_init_atexit_1                   0x080001af   Thumb Code     0  libinit2.o(.ARM.Collect$$libinit$$0000001B)
    __rt_lib_init_clock_1                    0x080001af   Thumb Code     0  libinit2.o(.ARM.Collect$$libinit$$00000021)
    __rt_lib_init_cpp_1                      0x080001af   Thumb Code     0  libinit2.o(.ARM.Collect$$libinit$$00000032)
    __rt_lib_init_exceptions_1               0x080001af   Thumb Code     0  libinit2.o(.ARM.Collect$$libinit$$00000030)
    __rt_lib_init_fp_trap_1                  0x080001af   Thumb Code     0  libinit2.o(.ARM.Collect$$libinit$$0000001F)
    __rt_lib_init_getenv_1                   0x080001af   Thumb Code     0  libinit2.o(.ARM.Collect$$libinit$$00000023)
    __rt_lib_init_heap_1                     0x080001af   Thumb Code     0  libinit2.o(.ARM.Collect$$libinit$$0000000A)
    __rt_lib_init_lc_collate_1               0x080001af   Thumb Code     0  libinit2.o(.ARM.Collect$$libinit$$00000011)
    __rt_lib_init_lc_ctype_1                 0x080001af   Thumb Code     0  libinit2.o(.ARM.Collect$$libinit$$00000013)
    __rt_lib_init_lc_monetary_1              0x080001af   Thumb Code     0  libinit2.o(.ARM.Collect$$libinit$$00000015)
    __rt_lib_init_lc_numeric_1               0x080001af   Thumb Code     0  libinit2.o(.ARM.Collect$$libinit$$00000017)
    __rt_lib_init_lc_time_1                  0x080001af   Thumb Code     0  libinit2.o(.ARM.Collect$$libinit$$00000019)
    __rt_lib_init_rand_1                     0x080001af   Thumb Code     0  libinit2.o(.ARM.Collect$$libinit$$0000000E)
    __rt_lib_init_return                     0x080001af   Thumb Code     0  libinit2.o(.ARM.Collect$$libinit$$00000033)
    __rt_lib_init_signal_1                   0x080001af   Thumb Code     0  libinit2.o(.ARM.Collect$$libinit$$0000001D)
    __rt_lib_init_stdio_1                    0x080001af   Thumb Code     0  libinit2.o(.ARM.Collect$$libinit$$00000025)
    __rt_lib_init_user_alloc_1               0x080001af   Thumb Code     0  libinit2.o(.ARM.Collect$$libinit$$0000000C)
    __rt_lib_shutdown                        0x080001b1   Thumb Code     0  libshutdown.o(.ARM.Collect$$libshutdown$$00000000)
    __rt_lib_shutdown_fp_trap_1              0x080001b3   Thumb Code     0  libshutdown2.o(.ARM.Collect$$libshutdown$$00000006)
    __rt_lib_shutdown_heap_1                 0x080001b3   Thumb Code     0  libshutdown2.o(.ARM.Collect$$libshutdown$$0000000E)
    __rt_lib_shutdown_return                 0x080001b3   Thumb Code     0  libshutdown2.o(.ARM.Collect$$libshutdown$$0000000F)
    __rt_lib_shutdown_signal_1               0x080001b3   Thumb Code     0  libshutdown2.o(.ARM.Collect$$libshutdown$$00000009)
    __rt_lib_shutdown_stdio_1                0x080001b3   Thumb Code     0  libshutdown2.o(.ARM.Collect$$libshutdown$$00000003)
    __rt_lib_shutdown_user_alloc_1           0x080001b3   Thumb Code     0  libshutdown2.o(.ARM.Collect$$libshutdown$$0000000B)
    __rt_entry                               0x080001b5   Thumb Code     0  __rtentry.o(.ARM.Collect$$rtentry$$00000000)
    __rt_entry_presh_1                       0x080001b5   Thumb Code     0  __rtentry2.o(.ARM.Collect$$rtentry$$00000002)
    __rt_entry_sh                            0x080001b5   Thumb Code     0  __rtentry4.o(.ARM.Collect$$rtentry$$00000004)
    __rt_entry_li                            0x080001bb   Thumb Code     0  __rtentry2.o(.ARM.Collect$$rtentry$$0000000A)
    __rt_entry_postsh_1                      0x080001bb   Thumb Code     0  __rtentry2.o(.ARM.Collect$$rtentry$$00000009)
    __rt_entry_main                          0x080001bf   Thumb Code     0  __rtentry2.o(.ARM.Collect$$rtentry$$0000000D)
    __rt_entry_postli_1                      0x080001bf   Thumb Code     0  __rtentry2.o(.ARM.Collect$$rtentry$$0000000C)
    __rt_exit                                0x080001c7   Thumb Code     0  rtexit.o(.ARM.Collect$$rtexit$$00000000)
    __rt_exit_ls                             0x080001c9   Thumb Code     0  rtexit2.o(.ARM.Collect$$rtexit$$00000003)
    __rt_exit_prels_1                        0x080001c9   Thumb Code     0  rtexit2.o(.ARM.Collect$$rtexit$$00000002)
    __rt_exit_exit                           0x080001cd   Thumb Code     0  rtexit2.o(.ARM.Collect$$rtexit$$00000004)
    LED_Init                                 0x080001d5   Thumb Code    40  main.o(.text)
    _maybe_terminate_alloc                   0x080001d5   Thumb Code     0  maybetermalloc1.o(.emb_text)
    main                                     0x080001fd   Thumb Code  1142  main.o(.text)
    SD_DeInit                                0x08000675   Thumb Code    66  sd_sdio.o(.text)
    SDIO_NVIC_Configuration                  0x080006b7   Thumb Code    32  sd_sdio.o(.text)
    SD_EnableWideBusOperation                0x08000abd   Thumb Code   140  sd_sdio.o(.text)
    SD_SelectDeselect                        0x08000b49   Thumb Code    48  sd_sdio.o(.text)
    SD_GetCardInfo                           0x08000b79   Thumb Code   700  sd_sdio.o(.text)
    SD_InitializeCards                       0x08000f31   Thumb Code   294  sd_sdio.o(.text)
    SD_PowerON                               0x080010ff   Thumb Code   374  sd_sdio.o(.text)
    SD_Init                                  0x08001275   Thumb Code   106  sd_sdio.o(.text)
    SD_SendStatus                            0x080012df   Thumb Code    46  sd_sdio.o(.text)
    SD_GetState                              0x0800130d   Thumb Code    64  sd_sdio.o(.text)
    SD_GetStatus                             0x0800134d   Thumb Code    30  sd_sdio.o(.text)
    SD_PowerOFF                              0x0800136b   Thumb Code    14  sd_sdio.o(.text)
    SD_SendSDStatus                          0x08001379   Thumb Code   360  sd_sdio.o(.text)
    SD_GetCardStatus                         0x080014e1   Thumb Code   156  sd_sdio.o(.text)
    SD_ReadBlock                             0x0800157d   Thumb Code   192  sd_sdio.o(.text)
    SD_ReadMultiBlocks                       0x0800163d   Thumb Code   202  sd_sdio.o(.text)
    SD_WaitReadOperation                     0x08001707   Thumb Code    42  sd_sdio.o(.text)
    SD_WriteBlock                            0x08001731   Thumb Code   226  sd_sdio.o(.text)
    SD_WriteMultiBlocks                      0x08001813   Thumb Code   294  sd_sdio.o(.text)
    SD_WaitWriteOperation                    0x08001939   Thumb Code    50  sd_sdio.o(.text)
    SD_GetTransferState                      0x0800196b   Thumb Code    18  sd_sdio.o(.text)
    SD_StopTransfer                          0x0800197d   Thumb Code    28  sd_sdio.o(.text)
    SD_Erase                                 0x08001b25   Thumb Code   336  sd_sdio.o(.text)
    SD_ProcessIRQSrc                         0x08001c75   Thumb Code    70  sd_sdio.o(.text)
    convert_from_bytes_to_power_of_two       0x08001cbb   Thumb Code    18  sd_sdio.o(.text)
    Fatfs_Init                               0x08001ce1   Thumb Code    28  fatfs.o(.text)
    Check_Form                               0x08001cfd   Thumb Code    38  fatfs.o(.text)
    Char_To_9_Num                            0x08001d23   Thumb Code   416  fatfs.o(.text)
    Data_Init                                0x08001ec3   Thumb Code  1064  fatfs.o(.text)
    Char_To_Num                              0x080022eb   Thumb Code   384  fatfs.o(.text)
    Char_To_Number                           0x0800246b   Thumb Code    70  fatfs.o(.text)
    Find_Position                            0x080024b1   Thumb Code    40  fatfs.o(.text)
    LinkList_Create                          0x08002509   Thumb Code    22  linklist.o(.text)
    LinkList_Destroy                         0x0800251f   Thumb Code    12  linklist.o(.text)
    LinkList_Clear                           0x0800252b   Thumb Code    12  linklist.o(.text)
    LinkList_Length                          0x08002537   Thumb Code    14  linklist.o(.text)
    LinkList_Insert                          0x08002545   Thumb Code    66  linklist.o(.text)
    LinkList_Get                             0x08002587   Thumb Code    44  linklist.o(.text)
    LinkList_Delete                          0x080025b3   Thumb Code    56  linklist.o(.text)
    TIM3_Int_Init                            0x080025ed   Thumb Code    90  timer.o(.text)
    TIM3_IRQHandler                          0x08002647   Thumb Code    40  timer.o(.text)
    Reset_Handler                            0x0800267d   Thumb Code     8  startup_stm32f10x_hd.o(.text)
    ADC1_2_IRQHandler                        0x08002697   Thumb Code     0  startup_stm32f10x_hd.o(.text)
    ADC3_IRQHandler                          0x08002697   Thumb Code     0  startup_stm32f10x_hd.o(.text)
    CAN1_RX1_IRQHandler                      0x08002697   Thumb Code     0  startup_stm32f10x_hd.o(.text)
    CAN1_SCE_IRQHandler                      0x08002697   Thumb Code     0  startup_stm32f10x_hd.o(.text)
    DMA1_Channel1_IRQHandler                 0x08002697   Thumb Code     0  startup_stm32f10x_hd.o(.text)
    DMA1_Channel2_IRQHandler                 0x08002697   Thumb Code     0  startup_stm32f10x_hd.o(.text)
    DMA1_Channel3_IRQHandler                 0x08002697   Thumb Code     0  startup_stm32f10x_hd.o(.text)
    DMA1_Channel4_IRQHandler                 0x08002697   Thumb Code     0  startup_stm32f10x_hd.o(.text)
    DMA1_Channel5_IRQHandler                 0x08002697   Thumb Code     0  startup_stm32f10x_hd.o(.text)
    DMA1_Channel6_IRQHandler                 0x08002697   Thumb Code     0  startup_stm32f10x_hd.o(.text)
    DMA1_Channel7_IRQHandler                 0x08002697   Thumb Code     0  startup_stm32f10x_hd.o(.text)
    DMA2_Channel1_IRQHandler                 0x08002697   Thumb Code     0  startup_stm32f10x_hd.o(.text)
    DMA2_Channel2_IRQHandler                 0x08002697   Thumb Code     0  startup_stm32f10x_hd.o(.text)
    DMA2_Channel3_IRQHandler                 0x08002697   Thumb Code     0  startup_stm32f10x_hd.o(.text)
    DMA2_Channel4_5_IRQHandler               0x08002697   Thumb Code     0  startup_stm32f10x_hd.o(.text)
    EXTI0_IRQHandler                         0x08002697   Thumb Code     0  startup_stm32f10x_hd.o(.text)
    EXTI15_10_IRQHandler                     0x08002697   Thumb Code     0  startup_stm32f10x_hd.o(.text)
    EXTI1_IRQHandler                         0x08002697   Thumb Code     0  startup_stm32f10x_hd.o(.text)
    EXTI2_IRQHandler                         0x08002697   Thumb Code     0  startup_stm32f10x_hd.o(.text)
    EXTI3_IRQHandler                         0x08002697   Thumb Code     0  startup_stm32f10x_hd.o(.text)
    EXTI4_IRQHandler                         0x08002697   Thumb Code     0  startup_stm32f10x_hd.o(.text)
    EXTI9_5_IRQHandler                       0x08002697   Thumb Code     0  startup_stm32f10x_hd.o(.text)
    FLASH_IRQHandler                         0x08002697   Thumb Code     0  startup_stm32f10x_hd.o(.text)
    FSMC_IRQHandler                          0x08002697   Thumb Code     0  startup_stm32f10x_hd.o(.text)
    I2C1_ER_IRQHandler                       0x08002697   Thumb Code     0  startup_stm32f10x_hd.o(.text)
    I2C1_EV_IRQHandler                       0x08002697   Thumb Code     0  startup_stm32f10x_hd.o(.text)
    I2C2_ER_IRQHandler                       0x08002697   Thumb Code     0  startup_stm32f10x_hd.o(.text)
    I2C2_EV_IRQHandler                       0x08002697   Thumb Code     0  startup_stm32f10x_hd.o(.text)
    PVD_IRQHandler                           0x08002697   Thumb Code     0  startup_stm32f10x_hd.o(.text)
    RCC_IRQHandler                           0x08002697   Thumb Code     0  startup_stm32f10x_hd.o(.text)
    RTCAlarm_IRQHandler                      0x08002697   Thumb Code     0  startup_stm32f10x_hd.o(.text)
    RTC_IRQHandler                           0x08002697   Thumb Code     0  startup_stm32f10x_hd.o(.text)
    SPI1_IRQHandler                          0x08002697   Thumb Code     0  startup_stm32f10x_hd.o(.text)
    SPI2_IRQHandler                          0x08002697   Thumb Code     0  startup_stm32f10x_hd.o(.text)
    SPI3_IRQHandler                          0x08002697   Thumb Code     0  startup_stm32f10x_hd.o(.text)
    TAMPER_IRQHandler                        0x08002697   Thumb Code     0  startup_stm32f10x_hd.o(.text)
    TIM1_BRK_IRQHandler                      0x08002697   Thumb Code     0  startup_stm32f10x_hd.o(.text)
    TIM1_CC_IRQHandler                       0x08002697   Thumb Code     0  startup_stm32f10x_hd.o(.text)
    TIM1_TRG_COM_IRQHandler                  0x08002697   Thumb Code     0  startup_stm32f10x_hd.o(.text)
    TIM1_UP_IRQHandler                       0x08002697   Thumb Code     0  startup_stm32f10x_hd.o(.text)
    TIM2_IRQHandler                          0x08002697   Thumb Code     0  startup_stm32f10x_hd.o(.text)
    TIM4_IRQHandler                          0x08002697   Thumb Code     0  startup_stm32f10x_hd.o(.text)
    TIM5_IRQHandler                          0x08002697   Thumb Code     0  startup_stm32f10x_hd.o(.text)
    TIM6_IRQHandler                          0x08002697   Thumb Code     0  startup_stm32f10x_hd.o(.text)
    TIM7_IRQHandler                          0x08002697   Thumb Code     0  startup_stm32f10x_hd.o(.text)
    TIM8_BRK_IRQHandler                      0x08002697   Thumb Code     0  startup_stm32f10x_hd.o(.text)
    TIM8_CC_IRQHandler                       0x08002697   Thumb Code     0  startup_stm32f10x_hd.o(.text)
    TIM8_TRG_COM_IRQHandler                  0x08002697   Thumb Code     0  startup_stm32f10x_hd.o(.text)
    TIM8_UP_IRQHandler                       0x08002697   Thumb Code     0  startup_stm32f10x_hd.o(.text)
    UART4_IRQHandler                         0x08002697   Thumb Code     0  startup_stm32f10x_hd.o(.text)
    UART5_IRQHandler                         0x08002697   Thumb Code     0  startup_stm32f10x_hd.o(.text)
    USART2_IRQHandler                        0x08002697   Thumb Code     0  startup_stm32f10x_hd.o(.text)
    USART3_IRQHandler                        0x08002697   Thumb Code     0  startup_stm32f10x_hd.o(.text)
    USBWakeUp_IRQHandler                     0x08002697   Thumb Code     0  startup_stm32f10x_hd.o(.text)
    USB_HP_CAN1_TX_IRQHandler                0x08002697   Thumb Code     0  startup_stm32f10x_hd.o(.text)
    USB_LP_CAN1_RX0_IRQHandler               0x08002697   Thumb Code     0  startup_stm32f10x_hd.o(.text)
    WWDG_IRQHandler                          0x08002697   Thumb Code     0  startup_stm32f10x_hd.o(.text)
    __user_initial_stackheap                 0x08002699   Thumb Code     0  startup_stm32f10x_hd.o(.text)
    NVIC_PriorityGroupConfig                 0x080026bd   Thumb Code    10  misc.o(.text)
    NVIC_Init                                0x080026c7   Thumb Code   100  misc.o(.text)
    NVIC_SetVectorTable                      0x0800272b   Thumb Code    14  misc.o(.text)
    NVIC_SystemLPConfig                      0x08002739   Thumb Code    34  misc.o(.text)
    SysTick_CLKSourceConfig                  0x0800275b   Thumb Code    40  misc.o(.text)
    GPIO_DeInit                              0x08002799   Thumb Code   172  stm32f10x_gpio.o(.text)
    GPIO_AFIODeInit                          0x08002845   Thumb Code    20  stm32f10x_gpio.o(.text)
    GPIO_Init                                0x08002859   Thumb Code   278  stm32f10x_gpio.o(.text)
    GPIO_StructInit                          0x0800296f   Thumb Code    16  stm32f10x_gpio.o(.text)
    GPIO_ReadInputDataBit                    0x0800297f   Thumb Code    18  stm32f10x_gpio.o(.text)
    GPIO_ReadInputData                       0x08002991   Thumb Code     8  stm32f10x_gpio.o(.text)
    GPIO_ReadOutputDataBit                   0x08002999   Thumb Code    18  stm32f10x_gpio.o(.text)
    GPIO_ReadOutputData                      0x080029ab   Thumb Code     8  stm32f10x_gpio.o(.text)
    GPIO_SetBits                             0x080029b3   Thumb Code     4  stm32f10x_gpio.o(.text)
    GPIO_ResetBits                           0x080029b7   Thumb Code     4  stm32f10x_gpio.o(.text)
    GPIO_WriteBit                            0x080029bb   Thumb Code    10  stm32f10x_gpio.o(.text)
    GPIO_Write                               0x080029c5   Thumb Code     4  stm32f10x_gpio.o(.text)
    GPIO_PinLockConfig                       0x080029c9   Thumb Code    18  stm32f10x_gpio.o(.text)
    GPIO_EventOutputConfig                   0x080029db   Thumb Code    26  stm32f10x_gpio.o(.text)
    GPIO_EventOutputCmd                      0x080029f5   Thumb Code     6  stm32f10x_gpio.o(.text)
    GPIO_PinRemapConfig                      0x080029fb   Thumb Code   138  stm32f10x_gpio.o(.text)
    GPIO_EXTILineConfig                      0x08002a85   Thumb Code    66  stm32f10x_gpio.o(.text)
    GPIO_ETH_MediaInterfaceConfig            0x08002ac7   Thumb Code     8  stm32f10x_gpio.o(.text)
    RCC_DeInit                               0x08002af5   Thumb Code    64  stm32f10x_rcc.o(.text)
    RCC_HSEConfig                            0x08002b35   Thumb Code    70  stm32f10x_rcc.o(.text)
    RCC_GetFlagStatus                        0x08002b7b   Thumb Code    56  stm32f10x_rcc.o(.text)
    RCC_WaitForHSEStartUp                    0x08002bb3   Thumb Code    56  stm32f10x_rcc.o(.text)
    RCC_AdjustHSICalibrationValue            0x08002beb   Thumb Code    20  stm32f10x_rcc.o(.text)
    RCC_HSICmd                               0x08002bff   Thumb Code     6  stm32f10x_rcc.o(.text)
    RCC_PLLConfig                            0x08002c05   Thumb Code    24  stm32f10x_rcc.o(.text)
    RCC_PLLCmd                               0x08002c1d   Thumb Code     6  stm32f10x_rcc.o(.text)
    RCC_SYSCLKConfig                         0x08002c23   Thumb Code    18  stm32f10x_rcc.o(.text)
    RCC_GetSYSCLKSource                      0x08002c35   Thumb Code    10  stm32f10x_rcc.o(.text)
    RCC_HCLKConfig                           0x08002c3f   Thumb Code    18  stm32f10x_rcc.o(.text)
    RCC_PCLK1Config                          0x08002c51   Thumb Code    18  stm32f10x_rcc.o(.text)
    RCC_PCLK2Config                          0x08002c63   Thumb Code    20  stm32f10x_rcc.o(.text)
    RCC_ITConfig                             0x08002c77   Thumb Code    26  stm32f10x_rcc.o(.text)
    RCC_USBCLKConfig                         0x08002c91   Thumb Code     8  stm32f10x_rcc.o(.text)
    RCC_ADCCLKConfig                         0x08002c99   Thumb Code    18  stm32f10x_rcc.o(.text)
    RCC_LSEConfig                            0x08002cab   Thumb Code    50  stm32f10x_rcc.o(.text)
    RCC_LSICmd                               0x08002cdd   Thumb Code     6  stm32f10x_rcc.o(.text)
    RCC_RTCCLKConfig                         0x08002ce3   Thumb Code    12  stm32f10x_rcc.o(.text)
    RCC_RTCCLKCmd                            0x08002cef   Thumb Code     8  stm32f10x_rcc.o(.text)
    RCC_GetClocksFreq                        0x08002cf7   Thumb Code   192  stm32f10x_rcc.o(.text)
    RCC_AHBPeriphClockCmd                    0x08002db7   Thumb Code    26  stm32f10x_rcc.o(.text)
    RCC_APB2PeriphClockCmd                   0x08002dd1   Thumb Code    26  stm32f10x_rcc.o(.text)
    RCC_APB1PeriphClockCmd                   0x08002deb   Thumb Code    26  stm32f10x_rcc.o(.text)
    RCC_APB2PeriphResetCmd                   0x08002e05   Thumb Code    26  stm32f10x_rcc.o(.text)
    RCC_APB1PeriphResetCmd                   0x08002e1f   Thumb Code    26  stm32f10x_rcc.o(.text)
    RCC_BackupResetCmd                       0x08002e39   Thumb Code     8  stm32f10x_rcc.o(.text)
    RCC_ClockSecuritySystemCmd               0x08002e41   Thumb Code     6  stm32f10x_rcc.o(.text)
    RCC_MCOConfig                            0x08002e47   Thumb Code     6  stm32f10x_rcc.o(.text)
    RCC_ClearFlag                            0x08002e4d   Thumb Code    14  stm32f10x_rcc.o(.text)
    RCC_GetITStatus                          0x08002e5b   Thumb Code    20  stm32f10x_rcc.o(.text)
    RCC_ClearITPendingBit                    0x08002e6f   Thumb Code     6  stm32f10x_rcc.o(.text)
    USART_DeInit                             0x08002e99   Thumb Code   134  stm32f10x_usart.o(.text)
    USART_Init                               0x08002f1f   Thumb Code   210  stm32f10x_usart.o(.text)
    USART_StructInit                         0x08002ff1   Thumb Code    24  stm32f10x_usart.o(.text)
    USART_ClockInit                          0x08003009   Thumb Code    34  stm32f10x_usart.o(.text)
    USART_ClockStructInit                    0x0800302b   Thumb Code    12  stm32f10x_usart.o(.text)
    USART_Cmd                                0x08003037   Thumb Code    24  stm32f10x_usart.o(.text)
    USART_ITConfig                           0x0800304f   Thumb Code    74  stm32f10x_usart.o(.text)
    USART_DMACmd                             0x08003099   Thumb Code    18  stm32f10x_usart.o(.text)
    USART_SetAddress                         0x080030ab   Thumb Code    18  stm32f10x_usart.o(.text)
    USART_WakeUpConfig                       0x080030bd   Thumb Code    18  stm32f10x_usart.o(.text)
    USART_ReceiverWakeUpCmd                  0x080030cf   Thumb Code    24  stm32f10x_usart.o(.text)
    USART_LINBreakDetectLengthConfig         0x080030e7   Thumb Code    18  stm32f10x_usart.o(.text)
    USART_LINCmd                             0x080030f9   Thumb Code    24  stm32f10x_usart.o(.text)
    USART_SendData                           0x08003111   Thumb Code     8  stm32f10x_usart.o(.text)
    USART_ReceiveData                        0x08003119   Thumb Code    10  stm32f10x_usart.o(.text)
    USART_SendBreak                          0x08003123   Thumb Code    10  stm32f10x_usart.o(.text)
    USART_SetGuardTime                       0x0800312d   Thumb Code    16  stm32f10x_usart.o(.text)
    USART_SetPrescaler                       0x0800313d   Thumb Code    16  stm32f10x_usart.o(.text)
    USART_SmartCardCmd                       0x0800314d   Thumb Code    24  stm32f10x_usart.o(.text)
    USART_SmartCardNACKCmd                   0x08003165   Thumb Code    24  stm32f10x_usart.o(.text)
    USART_HalfDuplexCmd                      0x0800317d   Thumb Code    24  stm32f10x_usart.o(.text)
    USART_OverSampling8Cmd                   0x08003195   Thumb Code    22  stm32f10x_usart.o(.text)
    USART_OneBitMethodCmd                    0x080031ab   Thumb Code    24  stm32f10x_usart.o(.text)
    USART_IrDAConfig                         0x080031c3   Thumb Code    18  stm32f10x_usart.o(.text)
    USART_IrDACmd                            0x080031d5   Thumb Code    24  stm32f10x_usart.o(.text)
    USART_GetFlagStatus                      0x080031ed   Thumb Code    26  stm32f10x_usart.o(.text)
    USART_ClearFlag                          0x08003207   Thumb Code    18  stm32f10x_usart.o(.text)
    USART_GetITStatus                        0x08003219   Thumb Code    84  stm32f10x_usart.o(.text)
    USART_ClearITPendingBit                  0x0800326d   Thumb Code    52  stm32f10x_usart.o(.text)
    DMA_DeInit                               0x080032a1   Thumb Code   324  stm32f10x_dma.o(.text)
    DMA_Init                                 0x080033e5   Thumb Code    60  stm32f10x_dma.o(.text)
    DMA_StructInit                           0x08003421   Thumb Code    26  stm32f10x_dma.o(.text)
    DMA_Cmd                                  0x0800343b   Thumb Code    24  stm32f10x_dma.o(.text)
    DMA_ITConfig                             0x08003453   Thumb Code    18  stm32f10x_dma.o(.text)
    DMA_SetCurrDataCounter                   0x08003465   Thumb Code     4  stm32f10x_dma.o(.text)
    DMA_GetCurrDataCounter                   0x08003469   Thumb Code     8  stm32f10x_dma.o(.text)
    DMA_GetFlagStatus                        0x08003471   Thumb Code    40  stm32f10x_dma.o(.text)
    DMA_ClearFlag                            0x08003499   Thumb Code    22  stm32f10x_dma.o(.text)
    DMA_GetITStatus                          0x080034af   Thumb Code    40  stm32f10x_dma.o(.text)
    DMA_ClearITPendingBit                    0x080034d7   Thumb Code    22  stm32f10x_dma.o(.text)
    SDIO_DeInit                              0x080034f5   Thumb Code    28  stm32f10x_sdio.o(.text)
    SDIO_Init                                0x08003511   Thumb Code    42  stm32f10x_sdio.o(.text)
    SDIO_StructInit                          0x0800353b   Thumb Code    16  stm32f10x_sdio.o(.text)
    SDIO_ClockCmd                            0x0800354b   Thumb Code     6  stm32f10x_sdio.o(.text)
    SDIO_SetPowerState                       0x08003551   Thumb Code    22  stm32f10x_sdio.o(.text)
    SDIO_GetPowerState                       0x08003567   Thumb Code    10  stm32f10x_sdio.o(.text)
    SDIO_ITConfig                            0x08003571   Thumb Code    26  stm32f10x_sdio.o(.text)
    SDIO_DMACmd                              0x0800358b   Thumb Code     6  stm32f10x_sdio.o(.text)
    SDIO_SendCommand                         0x08003591   Thumb Code    38  stm32f10x_sdio.o(.text)
    SDIO_CmdStructInit                       0x080035b7   Thumb Code    14  stm32f10x_sdio.o(.text)
    SDIO_GetCommandResponse                  0x080035c5   Thumb Code     8  stm32f10x_sdio.o(.text)
    SDIO_GetResponse                         0x080035cd   Thumb Code    22  stm32f10x_sdio.o(.text)
    SDIO_DataConfig                          0x080035e3   Thumb Code    42  stm32f10x_sdio.o(.text)
    SDIO_DataStructInit                      0x0800360d   Thumb Code    20  stm32f10x_sdio.o(.text)
    SDIO_GetDataCounter                      0x08003621   Thumb Code     6  stm32f10x_sdio.o(.text)
    SDIO_ReadData                            0x08003627   Thumb Code     8  stm32f10x_sdio.o(.text)
    SDIO_WriteData                           0x0800362f   Thumb Code     8  stm32f10x_sdio.o(.text)
    SDIO_GetFIFOCount                        0x08003637   Thumb Code     6  stm32f10x_sdio.o(.text)
    SDIO_StartSDIOReadWait                   0x0800363d   Thumb Code     8  stm32f10x_sdio.o(.text)
    SDIO_StopSDIOReadWait                    0x08003645   Thumb Code     8  stm32f10x_sdio.o(.text)
    SDIO_SetSDIOReadWaitMode                 0x0800364d   Thumb Code     8  stm32f10x_sdio.o(.text)
    SDIO_SetSDIOOperation                    0x08003655   Thumb Code     8  stm32f10x_sdio.o(.text)
    SDIO_SendSDIOSuspendCmd                  0x0800365d   Thumb Code     6  stm32f10x_sdio.o(.text)
    SDIO_CommandCompletionCmd                0x08003663   Thumb Code     8  stm32f10x_sdio.o(.text)
    SDIO_CEATAITCmd                          0x0800366b   Thumb Code    12  stm32f10x_sdio.o(.text)
    SDIO_SendCEATACmd                        0x08003677   Thumb Code     8  stm32f10x_sdio.o(.text)
    SDIO_GetFlagStatus                       0x0800367f   Thumb Code    20  stm32f10x_sdio.o(.text)
    SDIO_ClearFlag                           0x08003693   Thumb Code     6  stm32f10x_sdio.o(.text)
    SDIO_GetITStatus                         0x08003699   Thumb Code    20  stm32f10x_sdio.o(.text)
    SDIO_ClearITPendingBit                   0x080036ad   Thumb Code     6  stm32f10x_sdio.o(.text)
    FSMC_NORSRAMDeInit                       0x080036c9   Thumb Code    54  stm32f10x_fsmc.o(.text)
    FSMC_NANDDeInit                          0x080036ff   Thumb Code    62  stm32f10x_fsmc.o(.text)
    FSMC_PCCARDDeInit                        0x0800373d   Thumb Code    36  stm32f10x_fsmc.o(.text)
    FSMC_NORSRAMInit                         0x08003761   Thumb Code   230  stm32f10x_fsmc.o(.text)
    FSMC_NANDInit                            0x08003847   Thumb Code   132  stm32f10x_fsmc.o(.text)
    FSMC_PCCARDInit                          0x080038cb   Thumb Code   130  stm32f10x_fsmc.o(.text)
    FSMC_NORSRAMStructInit                   0x0800394d   Thumb Code   114  stm32f10x_fsmc.o(.text)
    FSMC_NANDStructInit                      0x080039bf   Thumb Code    54  stm32f10x_fsmc.o(.text)
    FSMC_PCCARDStructInit                    0x080039f5   Thumb Code    60  stm32f10x_fsmc.o(.text)
    FSMC_NORSRAMCmd                          0x08003a31   Thumb Code    46  stm32f10x_fsmc.o(.text)
    FSMC_NANDCmd                             0x08003a5f   Thumb Code    86  stm32f10x_fsmc.o(.text)
    FSMC_PCCARDCmd                           0x08003ab5   Thumb Code    44  stm32f10x_fsmc.o(.text)
    FSMC_NANDECCCmd                          0x08003ae1   Thumb Code    90  stm32f10x_fsmc.o(.text)
    FSMC_GetECC                              0x08003b3b   Thumb Code    24  stm32f10x_fsmc.o(.text)
    FSMC_ITConfig                            0x08003b53   Thumb Code   128  stm32f10x_fsmc.o(.text)
    FSMC_GetFlagStatus                       0x08003bd3   Thumb Code    54  stm32f10x_fsmc.o(.text)
    FSMC_ClearFlag                           0x08003c09   Thumb Code    62  stm32f10x_fsmc.o(.text)
    FSMC_GetITStatus                         0x08003c47   Thumb Code    64  stm32f10x_fsmc.o(.text)
    FSMC_ClearITPendingBit                   0x08003c87   Thumb Code    68  stm32f10x_fsmc.o(.text)
    TIM_DeInit                               0x08003cd5   Thumb Code   424  stm32f10x_tim.o(.text)
    TIM_TimeBaseInit                         0x08003e7d   Thumb Code   122  stm32f10x_tim.o(.text)
    TIM_OC1Init                              0x08003ef7   Thumb Code   132  stm32f10x_tim.o(.text)
    TIM_OC2Init                              0x08003f7b   Thumb Code   154  stm32f10x_tim.o(.text)
    TIM_OC3Init                              0x08004015   Thumb Code   150  stm32f10x_tim.o(.text)
    TIM_OC4Init                              0x080040ab   Thumb Code   182  stm32f10x_tim.o(.text)
    TIM_SetIC4Prescaler                      0x08004161   Thumb Code    26  stm32f10x_tim.o(.text)
    TIM_SetIC3Prescaler                      0x080041fd   Thumb Code    18  stm32f10x_tim.o(.text)
    TIM_SetIC2Prescaler                      0x08004289   Thumb Code    26  stm32f10x_tim.o(.text)
    TIM_SetIC1Prescaler                      0x08004325   Thumb Code    18  stm32f10x_tim.o(.text)
    TIM_ICInit                               0x080043a3   Thumb Code   150  stm32f10x_tim.o(.text)
    TIM_PWMIConfig                           0x08004439   Thumb Code   124  stm32f10x_tim.o(.text)
    TIM_BDTRConfig                           0x080044b5   Thumb Code    32  stm32f10x_tim.o(.text)
    TIM_TimeBaseStructInit                   0x080044d5   Thumb Code    18  stm32f10x_tim.o(.text)
    TIM_OCStructInit                         0x080044e7   Thumb Code    20  stm32f10x_tim.o(.text)
    TIM_ICStructInit                         0x080044fb   Thumb Code    18  stm32f10x_tim.o(.text)
    TIM_BDTRStructInit                       0x0800450d   Thumb Code    40  stm32f10x_tim.o(.text)
    TIM_Cmd                                  0x08004535   Thumb Code    24  stm32f10x_tim.o(.text)
    TIM_CtrlPWMOutputs                       0x0800454d   Thumb Code    30  stm32f10x_tim.o(.text)
    TIM_ITConfig                             0x0800456b   Thumb Code    18  stm32f10x_tim.o(.text)
    TIM_GenerateEvent                        0x0800457d   Thumb Code     4  stm32f10x_tim.o(.text)
    TIM_DMAConfig                            0x08004581   Thumb Code    10  stm32f10x_tim.o(.text)
    TIM_DMACmd                               0x0800458b   Thumb Code    18  stm32f10x_tim.o(.text)
    TIM_InternalClockConfig                  0x0800459d   Thumb Code    12  stm32f10x_tim.o(.text)
    TIM_SelectInputTrigger                   0x080045a9   Thumb Code    18  stm32f10x_tim.o(.text)
    TIM_ITRxExternalClockConfig              0x080045bb   Thumb Code    24  stm32f10x_tim.o(.text)
    TIM_TIxExternalClockConfig               0x080045d3   Thumb Code    62  stm32f10x_tim.o(.text)
    TIM_ETRConfig                            0x08004611   Thumb Code    28  stm32f10x_tim.o(.text)
    TIM_ETRClockMode1Config                  0x0800462d   Thumb Code    54  stm32f10x_tim.o(.text)
    TIM_ETRClockMode2Config                  0x08004663   Thumb Code    32  stm32f10x_tim.o(.text)
    TIM_PrescalerConfig                      0x08004683   Thumb Code     6  stm32f10x_tim.o(.text)
    TIM_CounterModeConfig                    0x08004689   Thumb Code    18  stm32f10x_tim.o(.text)
    TIM_EncoderInterfaceConfig               0x0800469b   Thumb Code    66  stm32f10x_tim.o(.text)
    TIM_ForcedOC1Config                      0x080046dd   Thumb Code    18  stm32f10x_tim.o(.text)
    TIM_ForcedOC2Config                      0x080046ef   Thumb Code    26  stm32f10x_tim.o(.text)
    TIM_ForcedOC3Config                      0x08004709   Thumb Code    18  stm32f10x_tim.o(.text)
    TIM_ForcedOC4Config                      0x0800471b   Thumb Code    26  stm32f10x_tim.o(.text)
    TIM_ARRPreloadConfig                     0x08004735   Thumb Code    24  stm32f10x_tim.o(.text)
    TIM_SelectCOM                            0x0800474d   Thumb Code    24  stm32f10x_tim.o(.text)
    TIM_SelectCCDMA                          0x08004765   Thumb Code    24  stm32f10x_tim.o(.text)
    TIM_CCPreloadControl                     0x0800477d   Thumb Code    24  stm32f10x_tim.o(.text)
    TIM_OC1PreloadConfig                     0x08004795   Thumb Code    18  stm32f10x_tim.o(.text)
    TIM_OC2PreloadConfig                     0x080047a7   Thumb Code    26  stm32f10x_tim.o(.text)
    TIM_OC3PreloadConfig                     0x080047c1   Thumb Code    18  stm32f10x_tim.o(.text)
    TIM_OC4PreloadConfig                     0x080047d3   Thumb Code    26  stm32f10x_tim.o(.text)
    TIM_OC1FastConfig                        0x080047ed   Thumb Code    18  stm32f10x_tim.o(.text)
    TIM_OC2FastConfig                        0x080047ff   Thumb Code    26  stm32f10x_tim.o(.text)
    TIM_OC3FastConfig                        0x08004819   Thumb Code    18  stm32f10x_tim.o(.text)
    TIM_OC4FastConfig                        0x0800482b   Thumb Code    26  stm32f10x_tim.o(.text)
    TIM_ClearOC1Ref                          0x08004845   Thumb Code    18  stm32f10x_tim.o(.text)
    TIM_ClearOC2Ref                          0x08004857   Thumb Code    24  stm32f10x_tim.o(.text)
    TIM_ClearOC3Ref                          0x0800486f   Thumb Code    18  stm32f10x_tim.o(.text)
    TIM_ClearOC4Ref                          0x08004881   Thumb Code    24  stm32f10x_tim.o(.text)
    TIM_OC1PolarityConfig                    0x08004899   Thumb Code    18  stm32f10x_tim.o(.text)
    TIM_OC1NPolarityConfig                   0x080048ab   Thumb Code    18  stm32f10x_tim.o(.text)
    TIM_OC2PolarityConfig                    0x080048bd   Thumb Code    26  stm32f10x_tim.o(.text)
    TIM_OC2NPolarityConfig                   0x080048d7   Thumb Code    26  stm32f10x_tim.o(.text)
    TIM_OC3PolarityConfig                    0x080048f1   Thumb Code    26  stm32f10x_tim.o(.text)
    TIM_OC3NPolarityConfig                   0x0800490b   Thumb Code    26  stm32f10x_tim.o(.text)
    TIM_OC4PolarityConfig                    0x08004925   Thumb Code    26  stm32f10x_tim.o(.text)
    TIM_CCxCmd                               0x0800493f   Thumb Code    30  stm32f10x_tim.o(.text)
    TIM_CCxNCmd                              0x0800495d   Thumb Code    30  stm32f10x_tim.o(.text)
    TIM_SelectOCxM                           0x0800497b   Thumb Code    82  stm32f10x_tim.o(.text)
    TIM_UpdateDisableConfig                  0x080049cd   Thumb Code    24  stm32f10x_tim.o(.text)
    TIM_UpdateRequestConfig                  0x080049e5   Thumb Code    24  stm32f10x_tim.o(.text)
    TIM_SelectHallSensor                     0x080049fd   Thumb Code    24  stm32f10x_tim.o(.text)
    TIM_SelectOnePulseMode                   0x08004a15   Thumb Code    18  stm32f10x_tim.o(.text)
    TIM_SelectOutputTrigger                  0x08004a27   Thumb Code    18  stm32f10x_tim.o(.text)
    TIM_SelectSlaveMode                      0x08004a39   Thumb Code    18  stm32f10x_tim.o(.text)
    TIM_SelectMasterSlaveMode                0x08004a4b   Thumb Code    18  stm32f10x_tim.o(.text)
    TIM_SetCounter                           0x08004a5d   Thumb Code     4  stm32f10x_tim.o(.text)
    TIM_SetAutoreload                        0x08004a61   Thumb Code     4  stm32f10x_tim.o(.text)
    TIM_SetCompare1                          0x08004a65   Thumb Code     4  stm32f10x_tim.o(.text)
    TIM_SetCompare2                          0x08004a69   Thumb Code     4  stm32f10x_tim.o(.text)
    TIM_SetCompare3                          0x08004a6d   Thumb Code     4  stm32f10x_tim.o(.text)
    TIM_SetCompare4                          0x08004a71   Thumb Code     6  stm32f10x_tim.o(.text)
    TIM_SetClockDivision                     0x08004a77   Thumb Code    18  stm32f10x_tim.o(.text)
    TIM_GetCapture1                          0x08004a89   Thumb Code     6  stm32f10x_tim.o(.text)
    TIM_GetCapture2                          0x08004a8f   Thumb Code     6  stm32f10x_tim.o(.text)
    TIM_GetCapture3                          0x08004a95   Thumb Code     6  stm32f10x_tim.o(.text)
    TIM_GetCapture4                          0x08004a9b   Thumb Code     8  stm32f10x_tim.o(.text)
    TIM_GetCounter                           0x08004aa3   Thumb Code     6  stm32f10x_tim.o(.text)
    TIM_GetPrescaler                         0x08004aa9   Thumb Code     6  stm32f10x_tim.o(.text)
    TIM_GetFlagStatus                        0x08004aaf   Thumb Code    18  stm32f10x_tim.o(.text)
    TIM_ClearFlag                            0x08004ac1   Thumb Code     6  stm32f10x_tim.o(.text)
    TIM_GetITStatus                          0x08004ac7   Thumb Code    34  stm32f10x_tim.o(.text)
    TIM_ClearITPendingBit                    0x08004ae9   Thumb Code     6  stm32f10x_tim.o(.text)
    delay_init                               0x08004af1   Thumb Code    50  delay.o(.text)
    delay_us                                 0x08004b23   Thumb Code    72  delay.o(.text)
    delay_ms                                 0x08004b6b   Thumb Code    72  delay.o(.text)
    NMI_Handler                              0x08004bc5   Thumb Code     2  stm32f10x_it.o(.text)
    HardFault_Handler                        0x08004bc7   Thumb Code     4  stm32f10x_it.o(.text)
    MemManage_Handler                        0x08004bcb   Thumb Code     4  stm32f10x_it.o(.text)
    BusFault_Handler                         0x08004bcf   Thumb Code     4  stm32f10x_it.o(.text)
    UsageFault_Handler                       0x08004bd3   Thumb Code     4  stm32f10x_it.o(.text)
    SVC_Handler                              0x08004bd7   Thumb Code     2  stm32f10x_it.o(.text)
    DebugMon_Handler                         0x08004bd9   Thumb Code     2  stm32f10x_it.o(.text)
    PendSV_Handler                           0x08004bdb   Thumb Code     2  stm32f10x_it.o(.text)
    SysTick_Handler                          0x08004bdd   Thumb Code     2  stm32f10x_it.o(.text)
    SDIO_IRQHandler                          0x08004bdf   Thumb Code     8  stm32f10x_it.o(.text)
    NVIC_Configuration                       0x08004be7   Thumb Code    12  sys.o(.text)
    SystemInit                               0x08004cd3   Thumb Code    78  system_stm32f10x.o(.text)
    SystemCoreClockUpdate                    0x08004d21   Thumb Code   142  system_stm32f10x.o(.text)
    uart_init                                0x08004dd5   Thumb Code   158  usart.o(.text)
    USART1_IRQHandler                        0x08004e73   Thumb Code   144  usart.o(.text)
    clust2sect                               0x080050b9   Thumb Code    26  ff.o(.text)
    get_fat                                  0x080050d3   Thumb Code   228  ff.o(.text)
    put_fat                                  0x080051b7   Thumb Code   310  ff.o(.text)
    gen_numname                              0x08005747   Thumb Code   190  ff.o(.text)
    f_mount                                  0x0800643b   Thumb Code    58  ff.o(.text)
    f_open                                   0x08006475   Thumb Code   372  ff.o(.text)
    f_read                                   0x080065e9   Thumb Code   462  ff.o(.text)
    f_write                                  0x080067b7   Thumb Code   526  ff.o(.text)
    f_sync                                   0x080069c5   Thumb Code   184  ff.o(.text)
    f_close                                  0x08006a7d   Thumb Code    22  ff.o(.text)
    f_lseek                                  0x08006a93   Thumb Code   432  ff.o(.text)
    f_opendir                                0x08006c43   Thumb Code   118  ff.o(.text)
    f_readdir                                0x08006cb9   Thumb Code   100  ff.o(.text)
    f_stat                                   0x08006d1d   Thumb Code    66  ff.o(.text)
    f_getfree                                0x08006d5f   Thumb Code   276  ff.o(.text)
    f_truncate                               0x08006e73   Thumb Code   156  ff.o(.text)
    f_unlink                                 0x08006f0f   Thumb Code   186  ff.o(.text)
    f_mkdir                                  0x08006fc9   Thumb Code   392  ff.o(.text)
    f_chmod                                  0x08007151   Thumb Code    92  ff.o(.text)
    f_utime                                  0x080071ad   Thumb Code    94  ff.o(.text)
    f_rename                                 0x0800720b   Thumb Code   298  ff.o(.text)
    f_gets                                   0x08007335   Thumb Code    78  ff.o(.text)
    f_putc                                   0x08007383   Thumb Code    38  ff.o(.text)
    f_puts                                   0x080073a9   Thumb Code    42  ff.o(.text)
    f_printf                                 0x080073d3   Thumb Code   700  ff.o(.text)
    ff_convert                               0x08007691   Thumb Code   116  cc936.o(.text)
    ff_wtoupper                              0x08007705   Thumb Code    46  cc936.o(.text)
    disk_initialize                          0x08007745   Thumb Code    26  diskio.o(.text)
    disk_status                              0x0800775f   Thumb Code     6  diskio.o(.text)
    disk_read                                0x08007765   Thumb Code    86  diskio.o(.text)
    disk_write                               0x080077bb   Thumb Code    86  diskio.o(.text)
    disk_ioctl                               0x08007811   Thumb Code     6  diskio.o(.text)
    get_fattime                              0x08007817   Thumb Code     4  diskio.o(.text)
    LCD_WriteReg                             0x0800781d   Thumb Code    10  ili9320.o(.text)
    LCD_ReadReg                              0x08007827   Thumb Code    12  ili9320.o(.text)
    FSMC_Init                                0x08007833   Thumb Code    94  ili9320.o(.text)
    LCD_Init                                 0x08007891   Thumb Code   130  ili9320.o(.text)
    Ili9320_Init                             0x08007913   Thumb Code   702  ili9320.o(.text)
    LCD_WriteRAM_Prepare                     0x08007bd1   Thumb Code    10  ili9320.o(.text)
    ili9320_SetWindows                       0x08007bdb   Thumb Code    60  ili9320.o(.text)
    LCD_Clear                                0x08007c17   Thumb Code    74  ili9320.o(.text)
    ili9320_PutChar                          0x08007c61   Thumb Code   144  ili9320.o(.text)
    GUI_Text                                 0x08007cf1   Thumb Code    66  ili9320.o(.text)
    GUI_Text_Num                             0x08007d33   Thumb Code   142  ili9320.o(.text)
    LCD_WriteRAM                             0x08007dc1   Thumb Code     8  ili9320.o(.text)
    ili9320_SetPoint                         0x08007dc9   Thumb Code    28  ili9320.o(.text)
    LCD_ReadRAM                              0x08007de5   Thumb Code    22  ili9320.o(.text)
    ili9320_BGR2RGB                          0x08007dfb   Thumb Code    26  ili9320.o(.text)
    ili9320_GetPoint                         0x08007e15   Thumb Code    26  ili9320.o(.text)
    GUI_Word                                 0x08007e2f   Thumb Code   194  ili9320.o(.text)
    malloc                                   0x08007ef5   Thumb Code    94  h1_alloc.o(.text)
    free                                     0x08007f53   Thumb Code    78  h1_free.o(.text)
    __aeabi_ldivmod                          0x08007fa1   Thumb Code     0  llsdiv.o(.text)
    _ll_sdiv                                 0x08007fa1   Thumb Code    72  llsdiv.o(.text)
    strlen                                   0x08007fe9   Thumb Code    62  strlen.o(.text)
    __use_two_region_memory                  0x08008027   Thumb Code     2  heapauxi.o(.text)
    __rt_heap_escrow                         0x08008029   Thumb Code     2  heapauxi.o(.text)
    __rt_heap_expand                         0x0800802b   Thumb Code     2  heapauxi.o(.text)
    __rt_heap_descriptor                     0x0800802d   Thumb Code     8  rt_heap_descriptor_intlibspace.o(.text)
    __use_no_heap                            0x08008035   Thumb Code     2  hguard.o(.text)
    __heap$guard                             0x08008037   Thumb Code     2  hguard.o(.text)
    _terminate_user_alloc                    0x08008039   Thumb Code     2  init_alloc.o(.text)
    _init_user_alloc                         0x0800803b   Thumb Code     2  init_alloc.o(.text)
    __Heap_Full                              0x0800803d   Thumb Code    34  init_alloc.o(.text)
    __Heap_Broken                            0x0800805f   Thumb Code     6  init_alloc.o(.text)
    _init_alloc                              0x08008065   Thumb Code    94  init_alloc.o(.text)
    __Heap_Initialize                        0x080080c3   Thumb Code    10  h1_init.o(.text)
    __Heap_DescSize                          0x080080cd   Thumb Code     4  h1_init.o(.text)
    __aeabi_uldivmod                         0x080080d1   Thumb Code     0  lludivv7m.o(.text)
    _ll_udiv                                 0x080080d1   Thumb Code   238  lludivv7m.o(.text)
    __user_libspace                          0x080081c1   Thumb Code     8  libspace.o(.text)
    __user_perproc_libspace                  0x080081c1   Thumb Code     0  libspace.o(.text)
    __user_perthread_libspace                0x080081c1   Thumb Code     0  libspace.o(.text)
    __Heap_ProvideMemory                     0x080081c9   Thumb Code    52  h1_extend.o(.text)
    __rt_SIGRTMEM                            0x080081fd   Thumb Code    14  defsig_rtmem_outer.o(.text)
    __I$use$semihosting                      0x0800820b   Thumb Code     0  use_no_semi.o(.text)
    __use_no_semihosting_swi                 0x0800820b   Thumb Code     2  use_no_semi.o(.text)
    __semihosting_library_function           0x0800820d   Thumb Code     0  indicate_semi.o(.text)
    __user_setup_stackheap                   0x0800820d   Thumb Code    74  sys_stackheap_outer.o(.text)
    exit                                     0x08008257   Thumb Code    12  exit.o(.text)
    __sig_exit                               0x08008263   Thumb Code    10  defsig_exit.o(.text)
    __rt_SIGRTMEM_inner                      0x0800826d   Thumb Code    22  defsig_rtmem_inner.o(.text)
    _sys_exit                                0x080082bd   Thumb Code     8  sys_exit.o(.text)
    __default_signal_display                 0x080082c9   Thumb Code    50  defsig_general.o(.text)
    _ttywrch                                 0x080082fb   Thumb Code    14  sys_wrch.o(.text)
    ili9320_SetCursor                        0x08008309   Thumb Code    24  ili9320.o(i.ili9320_SetCursor)
    textFileBuffer                           0x08008320   Data         109  fatfs.o(.constdata)
    ascii_8x16                               0x08033062   Data        1536  ili9320.o(.constdata)
    Region$$Table$$Base                      0x08033664   Number         0  anon$$obj.o(Region$$Table)
    Region$$Table$$Limit                     0x08033684   Number         0  anon$$obj.o(Region$$Table)
    StopCondition                            0x20000008   Data           4  sd_sdio.o(.data)
    TransferError                            0x2000000c   Data           1  sd_sdio.o(.data)
    TransferEnd                              0x20000010   Data           4  sd_sdio.o(.data)
    totle                                    0x20000014   Data           4  fatfs.o(.data)
    fs11                                     0x20000018   Data           4  fatfs.o(.data)
    res                                      0x2000001c   Data           1  fatfs.o(.data)
    bw                                       0x20000020   Data           4  fatfs.o(.data)
    list                                     0x20000024   Data           4  fatfs.o(.data)
    SystemCoreClock                          0x20000044   Data           4  system_stm32f10x.o(.data)
    AHBPrescTable                            0x20000048   Data          16  system_stm32f10x.o(.data)
    USART_RX_STA                             0x20000058   Data           2  usart.o(.data)
    dummy                                    0x20000062   Data           2  ili9320.o(.data)
    SDCardInfo                               0x20000094   Data          80  sd_sdio.o(.bss)
    SDIO_InitStructure                       0x200000e4   Data          24  sd_sdio.o(.bss)
    SDIO_CmdInitStructure                    0x200000fc   Data          20  sd_sdio.o(.bss)
    SDIO_DataInitStructure                   0x20000110   Data          24  sd_sdio.o(.bss)
    fs                                       0x20000128   Data         560  fatfs.o(.bss)
    DirInf                                   0x20000358   Data          36  fatfs.o(.bss)
    fdst                                     0x2000037c   Data         548  fatfs.o(.bss)
    fdst_err                                 0x200005a0   Data         548  fatfs.o(.bss)
    dataa                                    0x200007c4   Data          64  fatfs.o(.bss)
    USART_RX_BUF                             0x20000804   Data         200  usart.o(.bss)
    __libspace_start                         0x200008cc   Data          96  libspace.o(.bss)
    __temporary_stack_top$libspace           0x2000092c   Data           0  libspace.o(.bss)



==============================================================================

Memory Map of the image

  Image Entry point : 0x08000131

  Load Region LR_IROM1 (Base: 0x08000000, Size: 0x000336e8, Max: 0x00080000, ABSOLUTE)

    Execution Region ER_IROM1 (Base: 0x08000000, Size: 0x00033684, Max: 0x00080000, ABSOLUTE)

    Base Addr    Size         Type   Attr      Idx    E Section Name        Object

    0x08000000   0x00000130   Data   RO          172    RESET               startup_stm32f10x_hd.o
    0x08000130   0x00000008   Code   RO          548  * !!!main             c_w.l(__main.o)
    0x08000138   0x00000034   Code   RO          762    !!!scatter          c_w.l(__scatter.o)
    0x0800016c   0x0000001a   Code   RO          764    !!handler_copy      c_w.l(__scatter_copy.o)
    0x08000186   0x00000002   PAD
    0x08000188   0x0000001c   Code   RO          766    !!handler_zi        c_w.l(__scatter_zi.o)
    0x080001a4   0x00000002   Code   RO          698    .ARM.Collect$$libinit$$00000000  c_w.l(libinit.o)
    0x080001a6   0x00000000   Code   RO          585    .ARM.Collect$$libinit$$00000002  c_w.l(libinit2.o)
    0x080001a6   0x00000000   Code   RO          587    .ARM.Collect$$libinit$$00000004  c_w.l(libinit2.o)
    0x080001a6   0x00000008   Code   RO          588    .ARM.Collect$$libinit$$00000005  c_w.l(libinit2.o)
    0x080001ae   0x00000000   Code   RO          590    .ARM.Collect$$libinit$$0000000A  c_w.l(libinit2.o)
    0x080001ae   0x00000000   Code   RO          592    .ARM.Collect$$libinit$$0000000C  c_w.l(libinit2.o)
    0x080001ae   0x00000000   Code   RO          594    .ARM.Collect$$libinit$$0000000E  c_w.l(libinit2.o)
    0x080001ae   0x00000000   Code   RO          597    .ARM.Collect$$libinit$$00000011  c_w.l(libinit2.o)
    0x080001ae   0x00000000   Code   RO          599    .ARM.Collect$$libinit$$00000013  c_w.l(libinit2.o)
    0x080001ae   0x00000000   Code   RO          601    .ARM.Collect$$libinit$$00000015  c_w.l(libinit2.o)
    0x080001ae   0x00000000   Code   RO          603    .ARM.Collect$$libinit$$00000017  c_w.l(libinit2.o)
    0x080001ae   0x00000000   Code   RO          605    .ARM.Collect$$libinit$$00000019  c_w.l(libinit2.o)
    0x080001ae   0x00000000   Code   RO          607    .ARM.Collect$$libinit$$0000001B  c_w.l(libinit2.o)
    0x080001ae   0x00000000   Code   RO          609    .ARM.Collect$$libinit$$0000001D  c_w.l(libinit2.o)
    0x080001ae   0x00000000   Code   RO          611    .ARM.Collect$$libinit$$0000001F  c_w.l(libinit2.o)
    0x080001ae   0x00000000   Code   RO          613    .ARM.Collect$$libinit$$00000021  c_w.l(libinit2.o)
    0x080001ae   0x00000000   Code   RO          615    .ARM.Collect$$libinit$$00000023  c_w.l(libinit2.o)
    0x080001ae   0x00000000   Code   RO          617    .ARM.Collect$$libinit$$00000025  c_w.l(libinit2.o)
    0x080001ae   0x00000000   Code   RO          621    .ARM.Collect$$libinit$$0000002C  c_w.l(libinit2.o)
    0x080001ae   0x00000000   Code   RO          623    .ARM.Collect$$libinit$$0000002E  c_w.l(libinit2.o)
    0x080001ae   0x00000000   Code   RO          625    .ARM.Collect$$libinit$$00000030  c_w.l(libinit2.o)
    0x080001ae   0x00000000   Code   RO          627    .ARM.Collect$$libinit$$00000032  c_w.l(libinit2.o)
    0x080001ae   0x00000002   Code   RO          628    .ARM.Collect$$libinit$$00000033  c_w.l(libinit2.o)
    0x080001b0   0x00000002   Code   RO          759    .ARM.Collect$$libshutdown$$00000000  c_w.l(libshutdown.o)
    0x080001b2   0x00000000   Code   RO          717    .ARM.Collect$$libshutdown$$00000003  c_w.l(libshutdown2.o)
    0x080001b2   0x00000000   Code   RO          720    .ARM.Collect$$libshutdown$$00000006  c_w.l(libshutdown2.o)
    0x080001b2   0x00000000   Code   RO          723    .ARM.Collect$$libshutdown$$00000009  c_w.l(libshutdown2.o)
    0x080001b2   0x00000000   Code   RO          725    .ARM.Collect$$libshutdown$$0000000B  c_w.l(libshutdown2.o)
    0x080001b2   0x00000000   Code   RO          728    .ARM.Collect$$libshutdown$$0000000E  c_w.l(libshutdown2.o)
    0x080001b2   0x00000002   Code   RO          729    .ARM.Collect$$libshutdown$$0000000F  c_w.l(libshutdown2.o)
    0x080001b4   0x00000000   Code   RO          552    .ARM.Collect$$rtentry$$00000000  c_w.l(__rtentry.o)
    0x080001b4   0x00000000   Code   RO          635    .ARM.Collect$$rtentry$$00000002  c_w.l(__rtentry2.o)
    0x080001b4   0x00000006   Code   RO          647    .ARM.Collect$$rtentry$$00000004  c_w.l(__rtentry4.o)
    0x080001ba   0x00000000   Code   RO          637    .ARM.Collect$$rtentry$$00000009  c_w.l(__rtentry2.o)
    0x080001ba   0x00000004   Code   RO          638    .ARM.Collect$$rtentry$$0000000A  c_w.l(__rtentry2.o)
    0x080001be   0x00000000   Code   RO          640    .ARM.Collect$$rtentry$$0000000C  c_w.l(__rtentry2.o)
    0x080001be   0x00000008   Code   RO          641    .ARM.Collect$$rtentry$$0000000D  c_w.l(__rtentry2.o)
    0x080001c6   0x00000002   Code   RO          701    .ARM.Collect$$rtexit$$00000000  c_w.l(rtexit.o)
    0x080001c8   0x00000000   Code   RO          733    .ARM.Collect$$rtexit$$00000002  c_w.l(rtexit2.o)
    0x080001c8   0x00000004   Code   RO          734    .ARM.Collect$$rtexit$$00000003  c_w.l(rtexit2.o)
    0x080001cc   0x00000006   Code   RO          735    .ARM.Collect$$rtexit$$00000004  c_w.l(rtexit2.o)
    0x080001d2   0x00000002   PAD
    0x080001d4   0x00000000   Code   RO          655    .emb_text           c_w.l(maybetermalloc1.o)
    0x080001d4   0x0000049e   Code   RO            1    .text               main.o
    0x08000672   0x00000002   PAD
    0x08000674   0x0000166c   Code   RO           95    .text               sd_sdio.o
    0x08001ce0   0x00000828   Code   RO          111    .text               fatfs.o
    0x08002508   0x000000e2   Code   RO          134    .text               linklist.o
    0x080025ea   0x00000002   PAD
    0x080025ec   0x00000090   Code   RO          146    .text               timer.o
    0x0800267c   0x00000040   Code   RO          173    .text               startup_stm32f10x_hd.o
    0x080026bc   0x000000dc   Code   RO          177    .text               misc.o
    0x08002798   0x0000035c   Code   RO          189    .text               stm32f10x_gpio.o
    0x08002af4   0x000003a4   Code   RO          201    .text               stm32f10x_rcc.o
    0x08002e98   0x00000408   Code   RO          215    .text               stm32f10x_usart.o
    0x080032a0   0x00000254   Code   RO          227    .text               stm32f10x_dma.o
    0x080034f4   0x000001d4   Code   RO          239    .text               stm32f10x_sdio.o
    0x080036c8   0x0000060c   Code   RO          251    .text               stm32f10x_fsmc.o
    0x08003cd4   0x00000e1a   Code   RO          263    .text               stm32f10x_tim.o
    0x08004aee   0x00000002   PAD
    0x08004af0   0x000000d4   Code   RO          275    .text               delay.o
    0x08004bc4   0x00000022   Code   RO          312    .text               stm32f10x_it.o
    0x08004be6   0x0000000c   Code   RO          330    .text               sys.o
    0x08004bf2   0x00000002   PAD
    0x08004bf4   0x000001e0   Code   RO          342    .text               system_stm32f10x.o
    0x08004dd4   0x00000140   Code   RO          360    .text               usart.o
    0x08004f14   0x0000277a   Code   RO          379    .text               ff.o
    0x0800768e   0x00000002   PAD
    0x08007690   0x000000b4   Code   RO          409    .text               cc936.o
    0x08007744   0x000000d6   Code   RO          432    .text               diskio.o
    0x0800781a   0x00000002   PAD
    0x0800781c   0x000006d8   Code   RO          447    .text               ili9320.o
    0x08007ef4   0x0000005e   Code   RO          484    .text               c_w.l(h1_alloc.o)
    0x08007f52   0x0000004e   Code   RO          486    .text               c_w.l(h1_free.o)
    0x08007fa0   0x00000048   Code   RO          542    .text               c_w.l(llsdiv.o)
    0x08007fe8   0x0000003e   Code   RO          544    .text               c_w.l(strlen.o)
    0x08008026   0x00000006   Code   RO          546    .text               c_w.l(heapauxi.o)
    0x0800802c   0x00000008   Code   RO          556    .text               c_w.l(rt_heap_descriptor_intlibspace.o)
    0x08008034   0x00000004   Code   RO          558    .text               c_w.l(hguard.o)
    0x08008038   0x0000008a   Code   RO          560    .text               c_w.l(init_alloc.o)
    0x080080c2   0x0000000e   Code   RO          564    .text               c_w.l(h1_init.o)
    0x080080d0   0x000000ee   Code   RO          578    .text               c_w.l(lludivv7m.o)
    0x080081be   0x00000002   PAD
    0x080081c0   0x00000008   Code   RO          631    .text               c_w.l(libspace.o)
    0x080081c8   0x00000034   Code   RO          657    .text               c_w.l(h1_extend.o)
    0x080081fc   0x0000000e   Code   RO          661    .text               c_w.l(defsig_rtmem_outer.o)
    0x0800820a   0x00000002   Code   RO          672    .text               c_w.l(use_no_semi.o)
    0x0800820c   0x00000000   Code   RO          674    .text               c_w.l(indicate_semi.o)
    0x0800820c   0x0000004a   Code   RO          675    .text               c_w.l(sys_stackheap_outer.o)
    0x08008256   0x0000000c   Code   RO          683    .text               c_w.l(exit.o)
    0x08008262   0x0000000a   Code   RO          685    .text               c_w.l(defsig_exit.o)
    0x0800826c   0x00000050   Code   RO          687    .text               c_w.l(defsig_rtmem_inner.o)
    0x080082bc   0x0000000c   Code   RO          699    .text               c_w.l(sys_exit.o)
    0x080082c8   0x00000032   Code   RO          709    .text               c_w.l(defsig_general.o)
    0x080082fa   0x0000000e   Code   RO          730    .text               c_w.l(sys_wrch.o)
    0x08008308   0x00000018   Code   RO          460    i.ili9320_SetCursor  ili9320.o
    0x08008320   0x0000006d   Data   RO          113    .constdata          fatfs.o
    0x0800838d   0x0000000d   Data   RO          380    .constdata          ff.o
    0x0800839a   0x0002acc8   Data   RO          410    .constdata          cc936.o
    0x08033062   0x00000600   Data   RO          448    .constdata          ili9320.o
    0x08033662   0x00000002   PAD
    0x08033664   0x00000020   Data   RO          760    Region$$Table       anon$$obj.o


    Execution Region RW_IRAM1 (Base: 0x20000000, Size: 0x00000f30, Max: 0x00010000, ABSOLUTE)

    Base Addr    Size         Type   Attr      Idx    E Section Name        Object

    0x20000000   0x00000014   Data   RW           97    .data               sd_sdio.o
    0x20000014   0x00000014   Data   RW          114    .data               fatfs.o
    0x20000028   0x00000001   Data   RW          147    .data               timer.o
    0x20000029   0x00000014   Data   RW          202    .data               stm32f10x_rcc.o
    0x2000003d   0x00000001   PAD
    0x2000003e   0x00000004   Data   RW          276    .data               delay.o
    0x20000042   0x00000002   PAD
    0x20000044   0x00000014   Data   RW          343    .data               system_stm32f10x.o
    0x20000058   0x00000002   Data   RW          362    .data               usart.o
    0x2000005a   0x00000002   PAD
    0x2000005c   0x00000006   Data   RW          381    .data               ff.o
    0x20000062   0x00000002   Data   RW          449    .data               ili9320.o
    0x20000064   0x000000c4   Zero   RW           96    .bss                sd_sdio.o
    0x20000128   0x000006dc   Zero   RW          112    .bss                fatfs.o
    0x20000804   0x000000c8   Zero   RW          361    .bss                usart.o
    0x200008cc   0x00000060   Zero   RW          632    .bss                c_w.l(libspace.o)
    0x2000092c   0x00000004   PAD
    0x20000930   0x00000200   Zero   RW          171    HEAP                startup_stm32f10x_hd.o
    0x20000b30   0x00000400   Zero   RW          170    STACK               startup_stm32f10x_hd.o


==============================================================================

Image component sizes


      Code (inc. data)   RO Data    RW Data    ZI Data      Debug   Object Name

       180         18     175304          0          0       2121   cc936.o
         0          0          0          0          0         32   core_cm3.o
       212         18          0          4          0     205743   delay.o
       214          0          0          0          0       8098   diskio.o
      2088        406        109         20       1756       6475   fatfs.o
     10106         50         13          6          0      31110   ff.o
      1776         28       1536          2          0       6494   ili9320.o
       226          0          0          0          0       2503   linklist.o
      1182        114          0          0          0     287572   main.o
       220         22          0          0          0       1761   misc.o
      5740        204          0         20        196      17012   sd_sdio.o
        64         26        304          0       1536        772   startup_stm32f10x_hd.o
       596          8          0          0          0       4286   stm32f10x_dma.o
      1548         18          0          0          0       5307   stm32f10x_fsmc.o
       860         38          0          0          0       5609   stm32f10x_gpio.o
        34          0          0          0          0       1382   stm32f10x_it.o
       932         36          0         20          0       8760   stm32f10x_rcc.o
       468         22          0          0          0       7048   stm32f10x_sdio.o
      3610         88          0          0          0      22092   stm32f10x_tim.o
      1032         22          0          0          0       8328   stm32f10x_usart.o
        12          0          0          0          0        437   sys.o
       480         38          0         20          0       1775   system_stm32f10x.o
       144         14          0          1          0        748   timer.o
       320         18          0          2        200       1470   usart.o

    ----------------------------------------------------------------------
     32056       1188     177300        100       3688     636935   Object Totals
         0          0         32          0          0          0   (incl. Generated)
        12          0          2          5          0          0   (incl. Padding)

    ----------------------------------------------------------------------

      Code (inc. data)   RO Data    RW Data    ZI Data      Debug   Library Member Name

         8          0          0          0          0         68   __main.o
         0          0          0          0          0          0   __rtentry.o
        12          0          0          0          0          0   __rtentry2.o
         6          0          0          0          0          0   __rtentry4.o
        52          8          0          0          0          0   __scatter.o
        26          0          0          0          0          0   __scatter_copy.o
        28          0          0          0          0          0   __scatter_zi.o
        10          0          0          0          0         68   defsig_exit.o
        50          0          0          0          0         88   defsig_general.o
        80         58          0          0          0         76   defsig_rtmem_inner.o
        14          0          0          0          0         80   defsig_rtmem_outer.o
        12          0          0          0          0         72   exit.o
        94          0          0          0          0         80   h1_alloc.o
        52          0          0          0          0         68   h1_extend.o
        78          0          0          0          0         80   h1_free.o
        14          0          0          0          0         84   h1_init.o
         6          0          0          0          0        152   heapauxi.o
         4          0          0          0          0        136   hguard.o
         0          0          0          0          0          0   indicate_semi.o
       138          0          0          0          0        168   init_alloc.o
         2          0          0          0          0          0   libinit.o
        10          0          0          0          0          0   libinit2.o
         2          0          0          0          0          0   libshutdown.o
         2          0          0          0          0          0   libshutdown2.o
         8          4          0          0         96         68   libspace.o
        72          0          0          0          0         76   llsdiv.o
       238          0          0          0          0        100   lludivv7m.o
         0          0          0          0          0          0   maybetermalloc1.o
         8          4          0          0          0         68   rt_heap_descriptor_intlibspace.o
         2          0          0          0          0          0   rtexit.o
        10          0          0          0          0          0   rtexit2.o
        62          0          0          0          0         76   strlen.o
        12          4          0          0          0         68   sys_exit.o
        74          0          0          0          0         80   sys_stackheap_outer.o
        14          0          0          0          0         76   sys_wrch.o
         2          0          0          0          0         68   use_no_semi.o

    ----------------------------------------------------------------------
      1208         78          0          0        100       1900   Library Totals
         6          0          0          0          4          0   (incl. Padding)

    ----------------------------------------------------------------------

      Code (inc. data)   RO Data    RW Data    ZI Data      Debug   Library Name

      1202         78          0          0         96       1900   c_w.l

    ----------------------------------------------------------------------
      1208         78          0          0        100       1900   Library Totals

    ----------------------------------------------------------------------

==============================================================================


      Code (inc. data)   RO Data    RW Data    ZI Data      Debug   

     33264       1266     177300        100       3788     635555   Grand Totals
     33264       1266     177300        100       3788     635555   ELF Image Totals
     33264       1266     177300        100          0          0   ROM Totals

==============================================================================

    Total RO  Size (Code + RO Data)               210564 ( 205.63kB)
    Total RW  Size (RW Data + ZI Data)              3888 (   3.80kB)
    Total ROM Size (Code + RO Data + RW Data)     210664 ( 205.73kB)

==============================================================================

