:020000040800F2
:100000007847002011040008792100087B210008AE
:100010007F210008832100088721000800000000DC
:100020000000000000000000000000008B2100081C
:100030008D210008000000008F2100089121000898
:100040002B0400082B0400082B0400082B040008D4
:100050002B0400082B0400082B0400082B040008C4
:100060002B0400082B0400082B0400082B040008B4
:100070002B0400082B0400082B0400082B040008A4
:100080002B0400082B0400082B0400082B04000894
:100090002B0400082B0400082B0400082B04000884
:1000A0002B0400082B0400082B0400082B04000874
:1000B0002B040008F30300082B0400082B0400089D
:1000C0002B0400082B0400082B0400082B04000854
:1000D0002B040008EB260008392700081528000823
:1000E0002B0400082B0400082B0400082B04000834
:1000F0002B0400082B0400082B0400082B04000824
:100100002B0400082B0400082B0400082B04000813
:100110002B0400082B0400082B0400082B04000803
:100120002B0400082B0400082B0400082B040008F3
:1001300000F002F800F03AF80AA090E8000C8244BF
:100140008344AAF10107DA4501D100F02FF8AFF29C
:10015000090EBAE80F0013F0010F18BFFB1A43F0A5
:10016000010318471829000038290000103A24BF5D
:1001700078C878C1FAD8520724BF30C830C144BF0C
:1001800004680C607047000000230024002500264E
:10019000103A28BF78C1FBD8520728BF30C148BFEA
:1001A0000B6070471FB51FBD10B510BD02F037FCC6
:1001B0001146FFF7F7FF00F009F802F055FC03B411
:1001C000FFF7F2FF03BC02F0DBF8000001F06AFF6A
:1001D00001F0DFFF4FF4E13002F0D6F84FF4E130E8
:1001E00002F062F94FF4E13002F0EDF94FF4FA70E9
:1001F00001F095FF41F61F4140F28F1000F0CCF85E
:1002000005A000F01BF806E0642001F088FFB4F5BB
:10021000803F00D90024F7E75B68305D20000000D4
:1002200070B504460D46002605E014F8010B02F0F7
:1002300014FB701CC6B2AE42F7DB70BD70B58EB059
:1002400005460026284602F050FB0446FD208DF8A6
:10025000040000208DF80500A01CC0B28DF8060037
:1002600001208DF807008DF80800224629460DF17F
:10027000090002F059FB601DC1B201A8FFF7D0FFD1
:100280000EB070BD10B53F48007828B13E48FFF76A
:10029000D5FF00203B49087010BD70B504460E46DE
:1002A000254628884AF6AF2188420BD13246A11C48
:1002B000354802F039FB0021334AB01C11540120AB
:1002C0003049087028884AF6AA21884201D00020C7
:1002D00070BD207961790844E978884201D0002016
:1002E000F6E72879012802D128A002F0CCFA687933
:1002F000012803D06879022800D000BF0120E7E779
:1003000030B502460B460024134618884AF6AA2543
:10031000A84201D0002030BD042104E0505C2044FC
:10032000C4B2481CC1B20C29F8DBD878A04201D075
:100330000020F0E70120EEE72DE9F0410446002619
:10034000144FA0460E223946204602F0EDFA4AF636
:10035000AA20A8F80000042504E0785D3044C6B265
:10036000681CC5B20D2DF8DB88F80360BDE8F0818C
:1003700001460A794B791A44C2704AF6AA220280D1
:1003800008467047000000204800002052455345B1
:10039000540D0A00300000207FB505460C460121AF
:1003A000022000F0ECFBADF80850ADF8044000204E
:1003B000ADF80A00ADF8060001A9144801F038F8BC
:1003C00001221146114801F0AAFB1D208DF8000002
:1003D00000208DF8010003208DF8020001208DF827
:1003E0000300684600F039F80121084801F07CFB61
:1003F0007FBD10B50121054801F03FFE28B1012164
:10040000024801F04BFE02F054FA10BD0004004017
:100410000948804709480047FEE7FEE7FEE7FEE798
:10042000FEE7FEE7FEE7FEE7FEE7FEE704480549D4
:10043000054A064B704700007F2200083101000882
:10044000784100207847002078430020784300203E
:1004500031490143314A1160704770B500210023D2
:100460000F22C47804B32D4C246804F4E064C4F56E
:10047000E064210AC1F10403CA40447804FA03F19C
:100480008478144021430901254C0678A15504784D
:1004900004F01F050124AC4005786D11AD0005F195
:1004A000E025C5F8004109E0047804F01F050124A7
:1004B000AC401C4D0678761145F8264070BD1A4AAE
:1004C0000A400243154B1B1F1A60704739B1134A8B
:1004D000121D12680243114B1B1D1A6006E00F4AE1
:1004E000121D126882430D4B1B1D1A6070470428B1
:1004F00008D14FF0E021096941F004014FF0E022FA
:10050000116107E04FF0E021096921F004014FF08B
:10051000E0221161704700000000FA050CED00E0D8
:1005200000E400E080E100E080FFFF1F10B504461A
:10053000CC48844208D10121042000F02DFB002189
:10054000042000F029FB46E0C748844208D101217D
:10055000082000F021FB0021082000F01DFB3AE0FC
:10056000C248844208D10121102000F015FB00216F
:10057000102000F011FB2EE0BD48844208D101217B
:10058000202000F009FB0021202000F005FB22E0E4
:10059000B848844208D10121402000F0FDFA002132
:1005A000402000F0F9FA16E0B348844208D1012156
:1005B000802000F0F1FA0021802000F0EDFA0AE03E
:1005C000AE48844207D10121801500F0E5FA0021F0
:1005D000A01500F0E1FA10BD10B50121084600F0A9
:1005E000DBFA0021012000F0D7FA10BD2DE9F0411F
:1005F000024600250026002000230024002791F851
:1006000003C00CF00F0591F803C00CF0100CBCF106
:10061000000F03D091F802C04CEA050591F800C024
:10062000BCF1000F31D0146800202BE04FF0010C1A
:100630000CFA00F3B1F800C00CEA03069E4220D188
:1006400083004FF00F0C0CFA03F7BC4305FA03FCD0
:100650004CEA040491F803C0BCF1280F06D14FF016
:10066000010C0CFA00FCC2F814C00AE091F803C0B7
:10067000BCF1480F05D14FF0010C0CFA00FCC2F898
:1006800010C0401C0828D1D31460B1F800C0BCF1E0
:10069000FF0F34DD546800202EE000F1080C4FF00D
:1006A000010808FA0CF3B1F800C00CEA03069E42F8
:1006B00021D183004FF00F0C0CFA03F7BC4305FA6D
:1006C00003FC4CEA040491F803C0BCF1280F05D1E7
:1006D00000F1080C08FA0CF8C2F8148091F803C075
:1006E000BCF1480F07D100F1080C4FF0010808FADF
:1006F0000CF8C2F81080401C0828CED35460BDE826
:10070000F0814FF6FF710180022181700421C170D8
:1007100070470246002093680B400BB1012000E0B7
:10072000002070470146886880B27047024600206A
:10073000D3680B400BB1012000E000207047014658
:10074000C86880B2704701617047416170470AB163
:10075000016100E041617047C16070474FF4803231
:100760000A438261816182618269826970470246BF
:100770000020434B18684FF68073184040EA02107F
:1007800008433F4B186070473E49C8617047F0B559
:100790000A46002300240021002500F00046B6F19F
:1007A000004F02D1364EF16901E0354E7168C0F359
:1007B000034583B200F44016B6F5401F08D121F07E
:1007C00070612F4E766826F070662D4F7E6012E0C5
:1007D00000F48016B6F5801F06D1032606FA05F44C
:1007E000A14341F0706106E0460D360103FA06F6BA
:1007F000B14341F0706122B1460D360103FA06F6AD
:10080000314300F00046B6F1004F02D11C4EF161B9
:1008100001E01B4E7160F0BD30B500228B071C0F4C
:100820000F2303FA04F2164B08338C1053F82430CC
:100830009343134C08348D1044F8253023468C1014
:1008400053F824308C07240F00FA04F423430C4C93
:1008500008348D1044F8253030BD0A49DC31086079
:100860007047000000080140000C014000100140EA
:100870000014014000180140001C0140002001400C
:100880000000014000002042DF48006840F0010005
:10089000DD49086008464068DC490840DA4948609C
:1008A00008460068DA490840D749086008460068E9
:1008B00020F4802008600846406820F4FE0048606C
:1008C0004FF41F0088607047CF49096821F48031D8
:1008D000CD4A11601146096821F480211160B0F5FC
:1008E000803F03D0B0F5802F0ED106E0C6490968DD
:1008F00041F48031C44A116007E0C349096841F4FA
:10090000A021C14A116000E000BF00BF704710B5D0
:1009100001460022002300204A11012A02D1BA4CCC
:10092000236806E0022A02D1B74C236A01E0B64CE4
:10093000636A01F01F02012494401C400CB10120A5
:1009400000E0002010BD38B50020009000240025F4
:1009500000BF3120FFF7DBFF05460098401C0090E8
:100960000098B0F5A06F01D0002DF2D03120FFF734
:10097000CEFF08B1012400E00024204638BD014626
:100980000020A14A106820F0F80040EAC100106081
:100990007047A04908607047024600209A4B58688B
:1009A00020F47C1042EA01031843974B58607047CB
:1009B00098490866704701460020934A506820F025
:1009C00003000843506070478F48406800F00C00F7
:1009D0007047014600208C4A506820F0F000084320
:1009E0005060704701460020874A506820F4E0605C
:1009F00008435060704701460020834A506820F445
:100A0000605040EAC1005060704729B17E4A527A76
:100A100002437D4B5A7204E07B4A527A82437A4BFE
:100A20005A7270477B49D8310860704701460020F0
:100A3000754A506820F440400843506070470021D8
:100A4000714A20321170704A82F82010012802D0B9
:100A500004280AD104E001216B4A2032117005E01C
:100A60000521694A2032117000E000BF00BF7047C5
:100A70006949086070476449096A0143624A116222
:100A80007047654944390860704730B5002100223D
:100A9000002400235C4D6D6805F00C0121B1042990
:100AA00005D0082923D105E05C4D056022E05B4DAF
:100AB00005601FE0544D6D6805F47012524D6D686D
:100AC00005F48034022505EB92421CB9544D554380
:100AD00005600BE04C4D6D6805F400351DB1504DBF
:100AE0005543056002E04D4D5543056002E04B4D16
:100AF000056000BF00BF444D6D6805F0F0010909B5
:100B0000484D6B5C0568DD4045603F4D6D6805F400
:100B1000E061090A434D6B5C4568DD4085603A4DF4
:100B20006D6805F46051C90A3E4D6B5C4568DD4057
:100B3000C560354D6D6805F44041890B3A4D6B5CDD
:100B4000C568B5FBF3F5056130BD29B12E4A526980
:100B500002432D4B5A6104E02B4A526982432A4BCF
:100B60005A61704729B1284A92690243264B9A611B
:100B700004E0254A92698243234B9A61704729B168
:100B8000214AD2690243204BDA6104E01E4AD2694D
:100B900082431D4BDA61704729B11B4AD268024378
:100BA000194BDA6004E0184AD2688243164BDA60C7
:100BB000704729B1144A12690243134B1A6104E0C9
:100BC000114A12698243104B1A6170471249403929
:100BD000086070470F49C86470470B49C871704777
:100BE0000948406A40F080700749486270470146F2
:100BF0000020054A92680A400AB1012000E0002066
:100C00007047014988727047001002400000FFF8E9
:100C1000FFFFF6FE000042428004424200127A00CA
:100C200000093D00010000201100002010B504461D
:100C3000FB48844209D101218803FFF7ADFF002161
:100C40004FF48040FFF7A8FF32E0F648844209D114
:100C500001214804FFF7ADFF00214FF40030FFF7FA
:100C6000A8FF25E0F048844209D101218804FFF75C
:100C7000A0FF00214FF48020FFF79BFF18E0EB4816
:100C8000844209D10121C804FFF793FF00214FF4EA
:100C90000020FFF78EFF0BE0E548844208D10121D8
:100CA0000805FFF786FF00214FF48010FFF781FF52
:100CB00010BD2DE9F04786B005460E460024A24639
:100CC00000BFA1460027B08900B100BF2F462C8A83
:100CD0004CF6FF700440F08804432C82AC894EF639
:100CE000F3100440B08831890843718908430443F4
:100CF000AC81AC8A4FF6FF400440B0890443AC821B
:100D000001A8FFF7C2FEC648874202D1DDF810A055
:100D100001E0DDF80CA0A88900F4004040B10AEB26
:100D2000CA0000EB0A1031684900B0FBF1F807E097
:100D30000AEBCA0000EB0A1031688900B0FBF1F839
:100D40006420B8FBF0F004012009642101FB108944
:100D5000A88900F4004040B1322000EBC900B0FB8C
:100D6000F1F000F00700044308E0322000EB091026
:100D70006421B0FBF1F000F00F0004432C8106B0B9
:100D8000BDE8F0874FF41651016000218180C180D9
:100D900001810C21418100218181704710B50246FB
:100DA0000020108A4FF2FF0318400B884C88234321
:100DB0008C882343CC8823431843108210BD002124
:100DC000018041808180C180704721B1828942F4D5
:100DD0000052828104E082894DF6FF731A408281BD
:100DE0007047F0B50346002400260025002040F699
:100DF0006A17B94200D100BF1846C1F3421401F08E
:100E00001F06012707FA06F5012C01D10C3004E07A
:100E1000022C01D1103000E014301AB107682F43C2
:100E2000076002E00768AF430760F0BD1AB1838A2C
:100E30000B43838202E0838A8B4383827047028A5A
:100E40004FF6F0731A400282028A0A430282704708
:100E500082894FF2FF731A40828182890A4382811C
:100E6000704721B1828942F00202828104E08289C6
:100E70004FF6FD731A4082817047028A4FF6DF7386
:100E80001A400282028A0A430282704721B1028A12
:100E900042F48042028204E0028A4BF6FF731A4059
:100EA00002827047C1F30802828070470146888839
:100EB000C0F308007047818941F0010181817047CA
:100EC000028BD2B20283028B42EA01220283704774
:100ED000028B02F47F420283028B0A430283704733
:100EE00021B1828A42F02002828204E0828A4FF697
:100EF000DF731A408282704721B1828A42F0100269
:100F0000828204E0828A4FF6EF731A408282704731
:100F100021B1828A42F00802828204E0828A4FF67E
:100F2000F7731A408282704721B1828942F40042ED
:100F3000828103E08289C2F30E028281704721B16F
:100F4000828A42F40062828204E0828A4FF2FF7356
:100F50001A4082827047828A4FF6FB731A4082825F
:100F6000828A0A438282704721B1828A42F0020259
:100F7000828204E0828A4FF6FD731A4082827047B3
:100F800002460020B1F5007F00D100BF13880B405E
:100F90000BB1012000E00020704701F40072B2F5AF
:100FA000007F00D100BFCA430280704770B502467F
:100FB000002400230025002040F66A16B14200D12B
:100FC00000BFC1F3421501F01F03012606FA03F327
:100FD000012D02D19689334006E0022D02D1168AF6
:100FE000334001E0968A33400C12012606FA04F4DD
:100FF0001688344013B10CB1012000E0002070BD10
:1010000010B50022002340F66A14A14200D100BFAF
:101010000A1201249440A3B2DC43048010BD0000F6
:10102000003801400044004000480040004C0040AF
:101030000050004001684FF6FE721140016000212F
:10104000016041608160C1608D49884208D18C494E
:101050000839496841F00F01894A083A51608AE02D
:1010600087491431884208D185490839496841F0D7
:10107000F001834A083A51607DE081492831884275
:1010800008D17F490839496841F470617C4A083ABF
:10109000516070E07A493C31884208D1784908397A
:1010A000496841F47041764A083A516063E07449F6
:1010B0005031884208D172490839496841F4702199
:1010C0006F4A083A516056E06D496431884208D150
:1010D0006B490839496841F47001694A083A51601E
:1010E00049E067497831884208D16549083949683B
:1010F00041F07061624A083A51603CE061498842BF
:1011000006D1011F096841F00F01021F116032E092
:101110005C491431884208D15A49091F096841F0D5
:10112000F001584A121F116025E0564928318842C3
:1011300008D15449091F096841F47061514A121FCE
:10114000116018E04F493C31884208D14D49091FD0
:10115000096841F470414B4A121F11600BE0494984
:101160005031884207D14749091F096841F470216D
:10117000444A121F1160704710B50022026847F6FA
:10118000F0739A430C6A8B6823430C6923434C69C0
:1011900023438C692343CC6923434C6A23438C6AE1
:1011A00023431A430260CB6843600B6883604B683B
:1011B000C36010BD0021016041608160C1600161B8
:1011C00041618161C161016241628162704721B107
:1011D000026842F00102026004E002684FF6FE730A
:1011E0001A40026070471AB103680B43036002E0C3
:1011F00003688B430360704741607047014648684D
:1012000080B2704701460020002201F080531BB1DC
:101210001C4B083B1A6802E0194B083B1A6802EAAB
:1012200001030BB1012000E00020704700F0805165
:1012300019B11449091F086002E0114908394860D2
:10124000704701460020002201F080531BB10D4B76
:10125000083B1A6802E00A4B083B1A6802EA0103DD
:101260000BB1012000E00020704700F0805119B15F
:101270000449091F086002E00149083948607047C5
:10128000080002400804024010B50446FE488442AB
:1012900008D10121C014FFF77FFC0021E014FFF703
:1012A0007BFCC4E0B4F1804F08D101210846FFF770
:1012B00080FC00210120FFF77CFCB8E0F348844269
:1012C00008D101210220FFF774FC00210220FFF762
:1012D00070FCACE0EE48844208D101210420FFF705
:1012E00068FC00210420FFF764FCA0E0E948844288
:1012F00008D101210820FFF75CFC00210820FFF73E
:1013000058FC94E0E448844208D101211020FFF702
:1013100050FC00211020FFF74CFC88E0DF4884429D
:1013200008D101212020FFF744FC00212020FFF7F5
:1013300040FC7CE0DA48844208D101214014FFF7E8
:101340002BFC00216014FFF727FC70E0D548844295
:1013500009D10121C804FFF71FFC00214FF4002030
:10136000FFF71AFC63E0D048844209D10121080547
:10137000FFF712FC00214FF48010FFF70DFC56E040
:10138000CA48844209D101214805FFF705FC002124
:101390004FF40010FFF700FC49E0C548844208D133
:1013A00001214020FFF705FC00214020FFF701FC50
:1013B0003DE0C048844208D101218020FFF7F9FBBD
:1013C00000218020FFF7F5FB31E0BB48844208D1C3
:1013D00001218015FFF7EDFB0021A015FFF7E9FBC8
:1013E00025E0B648844209D101210804FFF7D4FB67
:1013F00000214FF48030FFF7CFFB18E0B048844263
:1014000009D101214804FFF7C7FB00214FF4003048
:10141000FFF7C2FB0BE0AB48844208D101218804EE
:10142000FFF7BAFB00214FF48020FFF7B5FB10BD9A
:1014300000220288944B98420ED0994B98420BD0D0
:10144000B0F1804F08D0914B984205D0904B984214
:1014500002D0904B984204D14FF68F731A404B88BC
:101460001A438D4B984207D08C4B984204D04FF6CC
:10147000FF431A40CB881A4302808B8883850B88F0
:101480000385814B98420BD0854B984208D08B4BFB
:10149000984205D08A4B984202D08A4B984201D19B
:1014A0000B7A038601238382704770B500240022E3
:1014B0000023058C4FF6FE7635400584028C838828
:1014C000048B4FF68F752C40B51E2C400D882C4395
:1014D000751E2A400D892A434D882A436A4DA84229
:1014E0000BD06F4DA84208D0744DA84205D0744D62
:1014F000A84202D0734DA84213D14FF6F7752A4087
:101500004D892A434FF6FB752A408D882A434FF6B2
:10151000FF652B404FF6FF552B408D892B43CD891E
:101520002B4383800483CD888586028470BD70B58B
:10153000002400220023058C4FF6EF763540058409
:10154000028C8388048B48F6FF752C404FF6FF45CC
:101550002C400D884FF6FF7606EA05252C434FF602
:10156000DF752A400D8906EA05152A434D8806EAEB
:1015700005152A43444DA84202D0494DA8421DD129
:101580004FF67F752A404D894FF6FF7606EA05151E
:101590002A434FF6BF752A408D8806EA05152A436F
:1015A0004FF6FF352B404FF2FF752B408D8906EA31
:1015B00085052B43CD8906EA85052B43838004836B
:1015C000CD880587028470BD70B5002400220023F9
:1015D000058C4FF6FF6635400584028C8388848B2A
:1015E0004FF68F752C404FF6FC752C400D882C4320
:1015F0004FF6FF552A400D894FF6FF7606EA05257E
:101600002A434D8806EA05252A431F4DA84202D0E9
:10161000234DA8421DD14FF2FF752A404D894FF648
:10162000FF7606EA05252A434FF6FF352A408D88C6
:1016300006EA05252A434EF6FF752B404DF6FF7549
:101640002B408D8906EA05152B43CD8906EA051541
:101650002B4383808483CD888587028470BD70B5D9
:10166000002200230024058C4EF6FF7635400584C9
:10167000038C8488828B48F6FF752A404FF6FF451D
:101680002A400D8820E00000002C014000040040AA
:1016900000080040000C0040001000400014004012
:1016A00000340140004C0140005001400054014012
:1016B00000180040001C0040002000400040014095
:1016C00000440140004801404FF6FF7606EA052538
:1016D0002A434DF6FF752B400D8906EA05352B434D
:1016E0004D8806EA05352B43FA4DA84202D0FA4D43
:1016F000A84208D14BF6FF752C408D894FF6FF7636
:1017000006EA85152C4384808283CD88A0F840505A
:10171000038470BD828B4FF2FF331A408283828B29
:101720004FF6FF7303EA01231A4382837047F0B533
:101730000C461546002200210026078C4EF6FF7C41
:1017400007EA0C070784828B018C4FF6FF7707EAC4
:10175000043640F6FF473A404FF6FF7707EA052781
:101760003A434FF6FF7707EA03373A43D94FB84277
:101770000ED0D94FB8420BD0B0F1804F08D0D74F20
:10178000B84205D0D64FB84202D0D64FB84206D1A3
:101790004DF6FF77394046F48057394305E047F668
:1017A000FF57394044F48057394382830184F0BDA8
:1017B000828B4FF6F3731A408283828B0A438283B3
:1017C0007047F0B50C461546002200210026078C14
:1017D0004FF6FF6C07EA0C070784828B018C4FF6EB
:1017E000FF7707EA04264FF60C773A404FF6FF776B
:1017F00007EA03172F433A43B64FB8420ED0B64F0D
:10180000B8420BD0B0F1804F08D0B44FB84205D0E9
:10181000B34FB84202D0B34FB84206D14FF6FF578C
:10182000394046F48077394305E04FF2FF5739409D
:1018300044F48077394382830184F0BD028B4FF2F8
:10184000FF331A400283028B4FF6FF7303EA012332
:101850001A4302837047F0B50C461546002200215A
:101860000026078C4FF6EF7C07EA0C070784028BF3
:10187000018C4FF6FF7707EA041640F6FF473A401F
:101880004FF6FF7707EA03373A434FF6FF7707EA49
:1018900005273A438F4FB8420ED08F4FB8420BD036
:1018A000B0F1804F08D08D4FB84205D08C4FB84270
:1018B00002D08C4FB84206D14FF6DF77394046F060
:1018C0001007394305E04FF65F77394044F01007C1
:1018D000394302830184F0BD028B4FF6F3731A4043
:1018E0000283028B0A4302837047F0B50C4615460B
:1018F00000220021068C4FF6FE773E400684028BC4
:10190000018C4FF60C7632407E1C06EA03162E43FD
:101910003243704EB0420ED06F4EB0420BD0B0F199
:10192000804F08D06D4EB04205D06D4EB04202D00F
:101930006C4EB04206D14FF6FD76314044F00106C0
:10194000314305E04FF6F576314044F0010631436E
:1019500002830184F0BD70B505460C465D488542A2
:101960000ED05D4885420BD0B5F1804F08D05B4862
:10197000854205D05A48854202D05A48854200D156
:1019800000E000BF208850B92389A28861882846DA
:10199000FFF7ABFFE1882846FFF79EFF25E0208890
:1019A00004280AD12389A28861882846FFF753FFBB
:1019B000E1882846FFF742FF17E0208808280AD16F
:1019C0002389A28861882846FFF7FBFEE188284624
:1019D000FFF7EEFE09E02389A28861882846FFF719
:1019E000A6FEE1882846FFF795FE70BD2DE9F0417F
:1019F00005460C4600260127608808B9022600E04B
:101A00000026A088012801D1022700E001272088B4
:101A1000A0B92389A28861882846FFF766FFE1887C
:101A20002846FFF759FF23893A4631462846FFF7F3
:101A300012FFE1882846FFF701FF13E02389A288FF
:101A400061882846FFF707FFE1882846FFF7F6FE82
:101A500023893A4631462846FFF747FFE188284662
:101A6000FFF73AFFBDE8F0810A884B881A438B885C
:101A70001A43CB881A430B891A434B891A438B8923
:101A80001A43A0F8442070474FF6FF71818000216F
:101A90000180C18041800172704700210180418036
:101AA0008180C180018141818181C1817047002194
:101AB00001804180012181800021C1800181704726
:101AC0000021018041808180C1800181418181812B
:101AD00070470000002C0140003401400004004029
:101AE00000080040000C004021B1028842F00102D1
:101AF000028004E002884FF6FE731A4002807047AD
:101B000031B1B0F8442042F40042A0F8442005E08E
:101B1000B0F84420C2F30E02A0F8442070471AB176
:101B200083890B43838102E083898B4383817047E0
:101B30008182704741EA0203A0F8483070471AB129
:101B400083890B43838102E083898B4383817047C0
:101B500001894FF6F8721140018170470A46002151
:101B600001894FF68F73194011430181704730B5D9
:101B700004460D4629462046FFF7F0FF208940F035
:101B80000700208130BD2DE9F04104460D46164680
:101B90001F46602D06D13B46012231462046FFF705
:101BA0005AFE05E03B46012231462046FFF79DFEE6
:101BB00029462046FFF7D2FF208940F00700208108
:101BC000BDE8F08130B50C4600210189C9B24FF65D
:101BD000FF7505EA0325154325432943018130BDDF
:101BE0002DE9F04105460E46174698460024434627
:101BF0003A4631462846FFF7E5FF2C894FF6F87044
:101C0000044044F007044FF68F70044044F0700421
:101C10002C81BDE8F081F0B504460D4616461F46FE
:101C20003B46324629462046FFF7CCFF208940F448
:101C300080402081F0BD0185828270470A460021E4
:101C400001884FF68F731940114301807047F0B53A
:101C50000C4615461E460021002200230189028BF6
:101C6000038C4FF6F877394021434FF6FC473A4052
:101C700040F201173A434FF6DD773B404FF6FF77CE
:101C800007EA06172F433B43018102830384F0BD1B
:101C90000A460021018B4FF68F73194011430183CF
:101CA00070470A460021018B48F6FF7319404FF632
:101CB000FF7303EA02231943018370470A46002198
:101CC000818B4FF68F7319401143818370470A4609
:101CD0000021818B48F6FF7319404FF6FF7303EA2A
:101CE000022319438183704721B1028842F08002A8
:101CF000028004E002884FF67F731A40028070472A
:101D000021B1828842F00402828004E082884FF68A
:101D1000FB731A408280704721B1828842F008022A
:101D2000828004E082884FF6F7731A408280704701
:101D300021B1828842F00102828004E082884FF65D
:101D4000FE731A40828070470A460021018B4FF6CD
:101D5000F77319401143018370470A460021018B34
:101D60004FF2FF7319404FF6FF7303EA0223194342
:101D7000018370470A460021818B4FF6F7731940A3
:101D80001143818370470A460021818B4FF2FF7314
:101D900019404FF6FF7303EA02231943818370470A
:101DA0000A460021018B4FF6FB7319401143018352
:101DB00070470A460021018B4FF6FF3319404FF65A
:101DC000FF7303EA02231943018370470A46002187
:101DD000818B4FF6FB7319401143818370470A468C
:101DE0000021818B4FF6FF3319404FF6FF7303EA52
:101DF00002231943818370470A460021018B4FF665
:101E00007F7319401143018370470A460021018BFB
:101E1000C1F30E014FF6FF7303EA02231943018356
:101E200070470A460021818B4FF67F73194011439A
:101E3000818370470A460021818BC1F30E014FF662
:101E4000FF7303EA02231943818370470A46002186
:101E5000018C4FF6FD7319401143018470470A4607
:101E60000021018C4FF6F77319401143018470472C
:101E70000A460021018C4FF6DF7319404FF6FF73BD
:101E800003EA02131943018470470A460021018CBA
:101E90004FF67F7319404FF6FF7303EA021319439D
:101EA000018470470A460021018C4FF6FF53194008
:101EB0004FF6FF7303EA02231943018470470A4671
:101EC0000021018C4FF2FF7319404FF6FF7303EAB4
:101ED00002231943018470470A460021018C4DF604
:101EE000FF7319404FF6FF7303EA0233194301846D
:101EF000704730B5002301248C40A3B2048C9C436E
:101F00000484048C02FA01F5ADB22C43048430BD84
:101F100030B5002304248C40A3B2048C9C43048479
:101F2000048C02FA01F5ADB22C43048430BD70B5C7
:101F30000346002000241846183001258D40ACB21D
:101F40001D8CA5431D8409B1082909D100EB61004E
:101F5000056825F0700505600568154305600EE00D
:101F60000D1FC5F34E052844056825F4E0450560BE
:101F700005684FF6FF7606EA02263543056070BD18
:101F800021B1028842F00202028004E002884FF68A
:101F9000FD731A400280704721B1028842F00402AA
:101FA000028004E002884FF6FB731A4002807047FB
:101FB00021B1828842F08002828004E082884FF65C
:101FC0007F731A408280704702884FF6F7731A4079
:101FD000028002880A430280704782884FF68F731E
:101FE0001A40828082880A438280704702894FF6B5
:101FF000F8731A40028102890A43028170470289FC
:102000004FF67F731A40028102890A4302817047AA
:10201000818470478185704781867047018770474A
:1020200081877047A0F84010704702884FF6FF4341
:102030001A40028002880A43028070470146888E57
:1020400070470146088F70470146888F70470146E8
:10205000B1F8400070470146888C70470146088DF2
:10206000704702460020138A0B400BB1012000E0AC
:1020700000207047CA430282704730B502460020F4
:1020800000230024158A05EA0103958905EA010465
:1020900013B10CB1012000E0002030BDCA43028220
:1020A0007047000010B56FF00400FEF720FA2E48CC
:1020B00000682E49B0FBF1F02D4908700846007801
:1020C00000EB4001C1EBC0104FF6FF7101EAC00008
:1020D0002849088010BD0146254A12784A434FF02E
:1020E000E0235A6100229A611A46126942F0010205
:1020F0001A6100BF4FF0E022106900F001021AB12E
:1021000000F48032002AF5D04FF0E022126922F06C
:1021100001024FF0E0231A6100229A6170470146E4
:10212000144A12884A434FF0E0235A6100229A6110
:102130001A46126942F001021A6100BF4FF0E02214
:10214000106900F001021AB100F48032002AF5D0C3
:102150004FF0E022126922F001024FF0E0231A61F1
:1021600000229A61704700001C00002000127A00D3
:102170001600002018000020704700BFFEE700BFD7
:10218000FEE700BFFEE700BFFEE7704770477047FD
:10219000704710B54FF4A060FEF75AF910BD00006B
:1021A0000CB50020019000906C48006840F480302D
:1021B0006A49086000BF6948006800F40030009078
:1021C0000198401C0190009818B90198B0F5A06FD3
:1021D000F1D16248006800F4003010B10120009095
:1021E00001E0002000900098012843D15C4800687D
:1021F00040F010005A4908600846006820F00300CB
:1022000008600846006840F00200086053484068D3
:10221000524948600846406848600846406840F4B3
:10222000806048600846406820F47C10486008469A
:10223000406840F4E81048600846006840F080704C
:10224000086000BF4548006800F000700028F9D021
:102250004248406820F00300404948600846406812
:1022600040F00200486000BF3C48406800F00C00AD
:102270000828F9D10CBD10B5FFF792FF10BD10B5BD
:102280003648006840F0010034490860084640685C
:1022900034490840314948600846006832490840DE
:1022A0002E4908600846006820F48020086008462F
:1022B000406820F4FE0048604FF41F008860FFF77C
:1022C000DAFF4FF000602949086010BD10B5002109
:1022D00000200022214B5B6803F00C0121B104298E
:1022E00006D0082928D107E0214B224C236027E0A3
:1022F0001F4B204C236023E0184B5B6803F47010E5
:10230000164B5B6803F48032022303EB904022B942
:10231000194B4343174C23600DE0104B5B6803F4EB
:10232000003323B1144B4343124C236003E0104BA2
:102330004343104C236003E00D4B0E4C236000BF61
:1023400000BF064B5B68C3F303130C4CE15C094B05
:102350001B68CB40074C236010BD000000100240FA
:10236000002002400000FFF8FFFFF6FE08ED00E04D
:1023700000127A001C00002000093D00200000200F
:10238000014600BF7047704710B592B00446012166
:102390000846FEF7DAFB01210846FEF7D6FBFA48AD
:1023A000FEF748FEF9480190F9480290002003909A
:1023B00041F2020004900020059080200690002049
:1023C0000790089009904FF440500A9000200B901D
:1023D00001A9ED48FEF7D0FE0121EB48FEF7F7FE1C
:1023E000012144F20400FEF7BDFBE848001FFEF7A0
:1023F0001DFC4FF40070ADF8440003208DF846003A
:1024000018208DF8470011A9E248FEF7EFF84FF4C5
:102410008060ADF8440004208DF8470011A9DD4824
:10242000FEF7E4F825208DF8300003208DF8310008
:102430008DF8320001208DF833000CA8FEF70DF85E
:102440000D940020ADF83800ADF83A00ADF83C002E
:10245000ADF840000C20ADF83E000DA9CB48001FA0
:10246000FEF727FC002240F22661C848001FFEF755
:10247000B8FC002240F22551C448001FFEF7B1FC11
:10248000012240F22441C148001FFEF7AAFC0122AC
:102490004021BE48001FFEF7C9FC0121BB48001FB8
:1024A000FEF793FC12B010BD10B592B004460121A6
:1024B0000846FEF74AFBB4481430FEF7BBFDB648A9
:1024C0000190B648029000200390802004900020E4
:1024D00005908020069000200790089009904FF406
:1024E00040500A9000200B9001A9A7481430FEF735
:1024F00043FE0121A4481430FEF769FE012148047F
:10250000FEF73DFB01210420FEF72CFBA248001F33
:10251000FEF78CFB0420ADF8440003208DF8460044
:1025200018208DF8470011A99A48FEF75FF8082097
:10253000ADF8440004208DF8470011A99548FEF736
:1025400055F826208DF8300002208DF8310001204A
:102550008DF832008DF833000CA8FDF77EFF0D9446
:102560000020ADF83800ADF83A00ADF83C00ADF809
:1025700040000C20ADF83E000DA98748001FFEF773
:1025800098FB002240F226618348001FFEF729FCD9
:10259000002240F225518048001FFEF722FC012254
:1025A00040F224417C48001FFEF71BFC0122402121
:1025B0007948001FFEF73AFC01217748001FFEF71B
:1025C00004FC12B010BD10B592B0044601210846BB
:1025D000FEF7BBFA6C482838FEF72CFD70480190D6
:1025E0007048029000200390802004900020059005
:1025F0008020069000200790089009904FF44050EA
:102600000A9000200B9001A95F482838FEF7B4FD1E
:1026100001215D482838FEF7DAFD01218804FEF724
:10262000AEFA01210820FEF79DFA5D48001FFEF773
:10263000FDFA4FF48060ADF8440003208DF84600A9
:1026400018208DF8470011A95748FDF7CFFF4FF428
:102650000060ADF8440004208DF8470011A95248ED
:10266000FDF7C4FF27208DF8300002208DF83100DF
:1026700000208DF8320001208DF833000CA8FDF702
:10268000ECFE0D940020ADF83800ADF83A00ADF83E
:102690003C00ADF840000C20ADF83E000DA94048CC
:1026A000001FFEF706FB002240F226613C48001F97
:1026B000FEF797FB002240F225513948001FFEF734
:1026C00090FB012240F224413548001FFEF789FBB0
:1026D000012240213248001FFEF7A8FB01213048AB
:1026E000001FFEF772FB12B010BD70B5002400256C
:1026F00040F224412548001FFEF758FCD8B123487A
:10270000001F0488001D048800211F48FEF75FFD9C
:102710001D48FEF773FD41F202010C1A21461C48C8
:10272000FDF7BBFD41F202011748FEF765FD0121EF
:102730001548FEF74CFD70BD2DE9F041002600273D
:10274000002540F224411448001FFEF72FFC00280A
:102750005ED01148001F0688001D068800210A4827
:102760001430FEF734FD08481430FEF747FDC0F181
:1027700080067B2E44D9842E42D2084C0A34002095
:102780000649887738E000005800024004380140CC
:102790004810002000080140044400404A20002066
:1027A000044800404C300020000C014014F8011B8C
:1027B000212921D1207861281DD1A07867281AD13C
:1027C000E0786C2817D160793A2814D1A41D06E06E
:1027D00005EB8500450014F8010B303805442078DE
:1027E000302802DB20783928F2DD3A4885604068DD
:1027F000401C3849486002E020780028D6D100BF4C
:1028000080213548FEF7F8FC01213348FEF7DFFC54
:10281000BDE8F08170B50024002540F224412F4826
:10282000FEF7C4FBC0B12D480488001D04880021B8
:1028300029483C38FEF7CBFC27483C38FEF7DEFC45
:10284000C0F18004802124483C38FEF7D5FC0121EA
:1028500021483C38FEF7BBFC70BD00BF1F4909880A
:1028600001F040010029F9D01C49091D088070477A
:1028700000BF1B49098801F040010029F9D018491F
:10288000091D0880704700B5024603E01078FFF785
:10289000EFFF521C10780028F8D100BD00BF11498D
:1028A000098801F040010029F9D00E49091D08806E
:1028B000704710B586B001A8FDF73EFD002405E085
:1028C00001A9085DFFF7EAFF601CC4B20D2CF7DB1D
:1028D00006B010BD300000206C00024000480040EF
:1028E0000044004000380140704710B5431C02E02E
:1028F00010F8011B71B18107FAD14FF0013202C803
:102900008C1A8C4314EAC211F9D0C01A0A0603D0FB
:10291000C01E10BDC01A10BD0A0401D0801E10BD1B
:102920000902FCD0401E10BD032A40F2308010F096
:10293000030C00F0158011F8013BBCF1020F62445A
:1029400098BF11F801CB00F8013B38BF11F8013BEB
:10295000A2F1040298BF00F801CB38BF00F8013B98
:1029600011F0030300F02980083AC0F0088051F804
:10297000043B083A51F804CBA0E80810F5E7121D13
:102980005CBF51F8043B40F8043BAFF30080D20732
:1029900024BF11F8013B11F801CB48BF11F8012BFE
:1029A00024BF00F8013B00F801CB48BF00F8012B21
:1029B0007047704770477047704710B5203AC0F0B5
:1029C0000B80B1E81850203AA0E81850B1E8185030
:1029D000A0E81850BFF4F5AF5FEA027C24BFB1E86D
:1029E0001850A0E8185044BF18C918C0BDE81040DE
:1029F0005FEA827C24BF51F8043B40F8043B08BFE7
:102A00007047D20728BF31F8023B48BF11F8012BAD
:102A100028BF20F8023B48BF00F8012B70477546DD
:102A200000F028F8AE4605006946534620F007003E
:102A3000854618B020B5FDF7F9FCBDE820404FF001
:102A400000064FF000074FF000084FF0000B21F098
:102A50000701AC46ACE8C009ACE8C009ACE8C00965
:102A6000ACE8C0098D4670470446AFF300802046AD
:102A7000FDF7A5FB00487047184100209C2A00087C
:102A800000000020300000006C010008CC2A000883
:102A900030000020484700008801000800000000C6
:102AA00000010203040102030406070809020406E8
:102AB000080000000000000000A24A04000000001E
:0C2AC000000000000102030406070809E2
:0400000508000131BD
:00000001FF
