:100764008F24E52430E10B20E2087F007E007DDC4D
:100774008036E52430E20B20E1087F007E007D8C8A
:100784008026E52420E22520E12220E30D30E00A42
:100794007F007E007D027C438031E52420E02F3001
:1007A400E32C7F007E007D487C42801FE52430E4FA
:1007B4001230E10F20E30320E014E52420E00F30A1
:0F07C400E30C227F007E007DB47C421204FD22F4
:1008E00020696E6620313A0020696E6620303A0039
:1008F00020313A0020303A0020310D0A0020300D1E
:020900000A00EB
:030940000115009E
:100902007F967E007DE87C03ED1D70011CED640185
:0E0912004C70F5EF1F70011EEF64014E70E691
:0109200022B4
:1005AC00E4F521F522F52353C9DF53CADFC2CD127E
:1005BC00000E1208BC7F007E007DB47C421204FD4C
:1005CC00120902E51060FCE4F5101209218F21AF2D
:1005DC0023E4FCFDFE1206DBE5217BFF30E0067A0E
:1005EC000879E080047A0879E8120897E5217BFF06
:1005FC0030E1067A0879F080047A0879F4120897C9
:10060C00E5217BFF30E2067A0879F080047A0879DC
:10061C00F4120897E5217BFF30E3067A0879F08025
:10062C00047A0879F4120897E5217BFF30E4067A06
:10063C000879F880047A0879FD120897AF2112071F
:03064C0064808047
:0F094300011000010800010900040A42B400007D
:10086E00E4FFFE7D20AB2CAA2BA92AA82902022484
:10087E00AF0DAE0CAD0BAC0AE4FBFA792078412239
:09088E00AB28AA27A926A82522FF
:1008BC00438E805389FB5389FC758CFE758AB5D2A7
:1008CC00A9D2B9D28CD2AF75116475141475129665
:0408DC0075139622D8
:03000B000207D316
:0B07D300C0E0C0D075D000C006C00719
:1007DE00050FE50F7002050EFFAE0EBE070BBFD064
:1007EE0008750E00750F00D295E50FB51202C29571
:1007FE00D51107751164D2000508E508B4641475A7
:10080E0008000509751001E509D394054005750921
:03081E0000B2CD58
:09082100D007D006D0D0D0E0329F
:0804FD008F288E278D268C2527
:10050500E4FFFEFDFC12088E12022450030205AB27
:10051500E4FFFE7D347C4312088E12022460054000
:10052500030205ABAF28AE27AD26AC25AB0DAA0C53
:10053500A90BA80A120224606D12088EAF0DAE0C2D
:10054500AD0BAC0A1200298F2C8E2B8D2A8C297CA1
:100555004112086E600A400812087E120029800DBB
:100565007CC112086E501012087E12002D8F0D8E60
:100575000C8D0B8C0A800C85280D85270C85260B88
:1005850085250A7F7B7E147D8E7C3FAB0DAA0CA949
:100595000BA80A12011E7B667A667948784212001A
:0605A5002D1202918F12DD
:0105AB00222D
:0F09530000000000000000000000000000000095
:10000E0075985075D7B875D6FF758E14438E01D27C
:04001E00ACD2AF228F
:030023000209626D
:0D096200309802C298309904C299C2013247
:09096F002001FDEFD201F59922EF
:100897008B3C8A3D893EAB3CAA3DA93E12040860C9
:1008A70013053EE53E7002053D14F9120408FF12D8
:0508B700096F80E22240
:0806DB008F278E268D258C244B
:1006E3008F2B8E2A8D298C28782C7C007D007BFF14
:1006F3007A0979537E007F0F1203E2753B0DE47B89
:100703000AFAF9F8AF2BAE2AAD29AC2812082AEB66
:100713002430FFAE3B153B742C2EF8A607AF2BAE4F
:100723002AAD29AC28E47B0AFAF9F812082A8F2BA0
:100733008E2A8D298C28EC4D4E4F70C2AF27AE26E2
:10074300AD25AC24EC33742C5007253BF8762D8073
:1007530005253BF87620742C253BF9E4FAFB0208C7
:0107630097FE
:10092100E4FF3092010F30CC0343070230B603439A
:0E093100070430940343070830930343071074
:01093F002295
:100026000202FDE86480F8E933E83360110460F009
:10003600ED33EC337009E8FCE9FDEAFEEBFF220440
:1000460060DED3EB9FEA9EE99DE8C2E78CF0C2F73B
:1000560095F0400CE8CCF8E9CDF9EACEFAEBCFFB07
:100066001202C885D0F05804700320D5B3E8047096
:10007600075002B2D502030792D5EC0460F7E4CC30
:10008600C0E0C398F8603B94186008400DD0E0FBD0
:100096000202DFE4FBFAC9FC8028E830E406E4C982
:1000A600FBE4CAFCE830E305E4C9CACBFCE8540724
:1000B6006010F8C3E913F9EA13FAEB13FBEC13FC2F
:1000C600D8F130F52FC3E49CFCEF9BFFEE9AFEEDD2
:1000D60099FDD0E0FBEF4E4D4C701222DB0302037C
:1000E60004EC2CFCEF33FFEE33FEED33FDED30E791
:1000F600EB0202DFEF2BFFEE3AFEED39FDD0E0FB1F
:1001060050130BBB0003020307ED13FDEE13FEEFC6
:0801160013FFEC13FC0202DFF1
:10011E00EC4D6011E8497017ED33EC3304600DE4DB
:10012E00FCFFFEFD22E933E8330470F80202FD12F3
:10013E0002C858046009E4CC2481500628500902F4
:10014E000307284003020304C0E0EB4A7044B98061
:10015E0006D0E0FB0202F3EF4E701CBD8008EBFFF1
:10016E00EAFEE9FD80EBE98DF0A4FEE5F002020760
:10017E00E9CDF9EAFEEBFFEF89F0A4FCE5F0CE89BC
:10018E00F0A42EFFE435F0CD89F0A42DFEE435F079
:10019E008067EF4E7005BD80D780C3EF8BF0A4ACA7
:1001AE00F0EE8BF0A42CFCE435F0F8EF8AF0A42CE2
:1001BE00E5F038FCE433CB8DF0A42CFCE5F03BF8F5
:1001CE00EE8AF0A42CFCE5F038F8E433CF89F0A4E5
:1001DE002CFCE5F038CF3400CE89F0A42FFFE5F0EB
:1001EE003EFEE433C98DF0A42EFEE5F039CD8AF043
:1001FE00A42FFFE5F03EFEE43DFD33D0E0FB5007BB
:10020E000BBB000F020307EC2CFCEF33FFEE33FEAB
:06021E00ED33FD0202DFDA
:1002240074F8CC6480CCC86480C8F582046043C38D
:10023400EB9FF5F0EA9E42F0E99D42F0E89C45F020
:1002440060305018E5825FFFE582F42B5582FB5045
:10025400210ABA001D09B90019088016E5825BFB62
:10026400E582F42F5582FF50090EBE00050DBD0036
:10027400010CC3EB9FF5F0EA9E42F0E99D42F0E8E1
:0D0284009C45F06007CC4820E701B3EC2258
:10029100EDD2E7CD33EC3392D524814006E4FFFE65
:1002A100FDFC22FCE4CFCECDCC24E0501174FF80C4
:1002B100EDC3CC13CCCD13CDCE13CECF13CF047061
:0702C100F030D5DE0204213C
:1002C800E9D2E7C933E833F892D5EDD2E7CD33EC7C
:0702D80033FC5002B2D522F5
:1002DF00EC30E7100FBF000C0EBE00080DBD000480
:1002EF000BEB6014A2D5EB13FCED92E7FD2274FF2C
:1002FF00FCFDFEFF22E480F8A2D574FF13FC7D8085
:03030F00E480EF98
:0300000002064FA6
:0C064F00787FE4F6D8FD75813E02069627
:10031200E709F608DFFA8046E709F208DFFA803ECD
:1003220088828C83E709F0A3DFFA8032E309F608BA
:10033200DFFA8078E309F208DFFA807088828C8322
:10034200E309F0A3DFFA806489828A83E0A3F608D6
:10035200DFFA805889828A83E0A3F208DFFA804CB0
:1003620080D280FA80C680D4806980F28033801087
:1003720080A680EA809A80A880DA80E280CA8033F0
:1003820089828A83ECFAE493A3C8C582C8CCC58368
:10039200CCF0A3C8C582C8CCC583CCDFE9DEE78038
:1003A2000D89828A83E493A3F608DFF9ECFAA9F0B7
:1003B200EDFB2289828A83ECFAE0A3C8C582C8CC0D
:1003C200C583CCF0A3C8C582C8CCC583CCDFEADE26
:1003D200E880DB89828A83E493A3F208DFF980CC88
:1003E20088F0EF60010E4E60C388F0ED2402B40481
:1003F2000050B9F582EB2402B4040050AF23234528
:06040200822390036273E7
:10040800BB010689828A83E0225002E722BBFE02F2
:09041800E32289828A83E4932225
:10082A00C2D5E830E70FB2D5E4C39BFBE49AFAE4F9
:10083A0099F9E498F8EC30E717B2D5120860120477
:10084A006BE4C39BFBE49AFAE499F9E498F8800311
:10085A0012046B30D50DE4C39FFFE49EFEE49DFDB8
:04086A00E49CFC22EC
:0E042100C3E49FFFE49EFEE49DFDE49CFC22EC
:10065B000205ACE493A3F8E493A34003F68001F204
:10066B0008DFF48029E493A3F85407240CC8C333A0
:10067B00C4540F4420C8834004F456800146F6DF6F
:10068B00E4800B0102040810204080900940E47EB6
:10069B00019360BCA3FF543F30E509541FFEE49364
:1006AB00A360010ECF54C025E060A840B8E493A32B
:1006BB00FAE493A3F8E493A3C8C582C8CAC583CA56
:1006CB00F0A3C8C582C8CAC583CADFE9DEE780BE0E
:0109520000A4
:10042F0075F008758200EF2FFFEE33FECD33CDCC84
:10043F0033CCC58233C5829BED9AEC99E582984007
:10044F000CF582EE9BFEED9AFDEC99FC0FD5F0D6E4
:10045F00E4CEFBE4CDFAE4CCF9A88222B800C1B90E
:10046F000059BA002DEC8BF084CFCECDFCE5F0CB4C
:10047F00F97818EF2FFFEE33FEED33FDEC33FCEB85
:10048F0033FB10D703994004EB99FB0FD8E5E4F940
:10049F00FA227818EF2FFFEE33FEED33FDEC33FC2D
:1004AF00C933C910D7059BE99A4007EC9BFCE99A21
:1004BF00F90FD8E0E4C9FAE4CCFB2275F010EF2F66
:1004CF00FFEE33FEED33FDCC33CCC833C810D70766
:1004DF009BEC9AE899400AED9BFDEC9AFCE899F8A1
:0E04EF000FD5F0DAE4CDFBE4CCFAE4C8F92234
:00000001FF
