C51 COMPILER V9.01   MAIN                                                                  03/14/2017 22:22:05 PAGE 1   


C51 COMPILER V9.01, COMPILATION OF MODULE MAIN
OBJECT MODULE PLACED IN main.obj
COMPILER INVOKED BY: D:\Keil_v4_c51\C51\BIN\C51.EXE src\main.c OPTIMIZE(9,SPEED) BROWSE INCDIR(.\inc) DEBUG OBJECTEXTEND
                    - PRINT(.\main.lst) OBJECT(main.obj)

line level    source

   1          /**
   2            ***************************************
   3            *@File     main.c
   4            *@Auther   YNXF  
   5            *@date     2017-03-13
   6            *@Version  v3.0
   7            *@brief    stc15w408as-16pin  
   8            *@Rate         33.1776Mhz       
   9            *@HAUST - RobotLab for National Contest of engineering training for comprehensive abilities for College 
             -Students
  10            ***************************************
  11          **/
  12          
  13          #include "main.h"
  14          #include "tactics.h"
  15          #include "infrared.h"
  16          u8 ttt = 0;
  17          /*
  18                  name: void delay()
  19          */
  20          void delay()
  21          {
  22   1              int x,y;
  23   1              for(x=150;x>1;x--)
  24   1              {
  25   2                      for(y=1000;y>1;y--);
  26   2              }
  27   1      }
  28          
  29          
  30          extern u8 time_100ms;
  31          
  32          int main()
  33          {
  34   1              u8 inf_val=0;
  35   1              u8 mid=0;
  36   1              u8 temp_n = 0;
  37   1      
  38   1              P5M1 &= ~0X20;           //P55设置为推挽模式
  39   1              P5M0 &= ~0X20;
  40   1              LED = 0;
  41   1      
  42   1      #if _DEBUG
  43   1              Uart_Init();
  44   1      #endif
  45   1      
  46   1              PWM_Init();
  47   1              Motor(MOTOR_CENTER);
  48   1          delay();
  49   1                              //  while(1);
  50   1              while(1)  
  51   1              {
  52   2      
  53   2                      while(!time_100ms)
C51 COMPILER V9.01   MAIN                                                                  03/14/2017 22:22:05 PAGE 2   

  54   2                      {
  55   3      
  56   3                      }
  57   2                      time_100ms = 0;
  58   2                      inf_val = infrared();
  59   2      
  60   2      
  61   2      #if  _DEBUG
  62   2              
  63   2                      SendNum(temp_n);
  64   2                      
  65   2                      if( inf_val&0x01 )
  66   2                              SendString(" inf 1:");
  67   2                      else
  68   2                              SendString(" inf 0:");
  69   2                      if( inf_val&0x02 )
  70   2                              SendString(" 1:");
  71   2                      else
  72   2                              SendString(" 0:");
  73   2                      
  74   2                      if( inf_val&0x04 )
  75   2                              SendString(" 1:");
  76   2                      else
  77   2                              SendString(" 0:");
  78   2                      
  79   2                      if( inf_val&0x08 )
  80   2                              SendString(" 1:");
  81   2                      else
  82   2                              SendString(" 0:");
  83   2                      
  84   2                      if( inf_val&0x10 )
  85   2                              SendString(" 1\r\n");
  86   2                      else
  87   2                              SendString(" 0\r\n");    
  88   2      #endif
  89   2      
  90   2                  go(inf_val);
  91   2      
  92   2              }
  93   1      
  94   1      }


MODULE INFORMATION:   STATIC OVERLAYABLE
   CODE SIZE        =    194    ----
   CONSTANT SIZE    =     34    ----
   XDATA SIZE       =   ----    ----
   PDATA SIZE       =   ----    ----
   DATA SIZE        =      1       3
   IDATA SIZE       =   ----    ----
   BIT SIZE         =   ----    ----
END OF MODULE INFORMATION.


C51 COMPILATION COMPLETE.  0 WARNING(S),  0 ERROR(S)
